:1000000019C033C032C031C030C02FC02EC02DC087
:100010002CC02BC02AC029C028C027C026C025C09C
:1000200024C023C022C021C020C01FC01EC01DC0CC
:100030001CC01BC011241FBECFEFD4E0DEBFCDBF5C
:1000400011E0A0E0B1E0E4E5F1E002C005900D921E
:10005000A030B107D9F711E0A0E0B1E001C01D92D6
:10006000A030B107E1F72FD073C0CACF1092C500FE
:1000700083E38093C4008EE88093C20088E180937C
:10008000C100089580EC80937C0086E880937A001C
:100090000895FC0101900020E9F73197E81BF90B66
:1000A00020E030E00CC04091C00045FFFCCFDC01F7
:1000B000A20FB31F4C914093C6002F5F3F4F2E17E6
:1000C0003F0789F708950F931F931092C50083E3AC
:1000D0008093C4008EE88093C20088E18093C100C1
:1000E00080EC80937C0086E880937A0009E51CE22E
:1000F0008091C00087FDFCCF0093C6008091C000B6
:1001000087FFFCCF8091C6009091C00095FFFCCF87
:100110008C32A1F78091C00085FFFCCF1093C60000
:1001200003D08093C600E4CF85EE80937C0080915D
:1001300064008E7F8093640080917A008064809355
:100140007A0080917A0086FDFCCF80917900089535
:04015000F894FFCF51
:00000001FF
