:1000000019C033C032C031C030C02FC02EC02DC087
:100010002CC02BC02AC029C028C027C026C025C09C
:1000200024C023C022C021C020C01FC01EC01DC0CC
:100030001CC01BC011241FBECFEFD4E0DEBFCDBF5C
:1000400011E0A0E0B1E0E4EBF2E002C005900D9217
:10005000A030B107D9F711E0A0E0B1E001C01D92D6
:10006000A030B107E1F702D023C1CACF1092C5007A
:1000700083E38093C4008EE88093C20088E180937C
:10008000C10029E130E08091C00087FFFCCF4091A2
:10009000C6008091C00085FFFCCF8FEF9FEFF90174
:1000A0003197F1F70197D9F74093C600ECCF109242
:1000B000C50083E38093C4008EE88093C20088E18A
:1000C0008093C1000895FC0101900020E9F7319769
:1000D000E81BF90B20E030E00CC04091C00045FF68
:1000E000FCCFDC01A20FB31F4C914093C6002F5FE1
:1000F0003F4F2E173F0789F708958FEF8AB9E8E839
:10010000F3E1CF010197F1F72D9885B18F7385B990
:1001100098E39BB92D9A2D98A2EEB4E01197F1F7D0
:1001200085B18F7385B99BB92D9A2D988AEF90E090
:10013000DC011197F1F72D9A2D98DC011197F1F759
:1001400025B12F7325B921E02BB92D9A2D98319720
:10015000F1F725B12F7325B926E02BB92D9A2D98EB
:100160000197F1F785B18F7385B98EE08BB92D9A20
:100170002D9884EC99E00197F1F708952D98089552
:100180002D9A0895A0E0B0E0E7ECF0E064C08C01A7
:10019000C0E0D0E0EE24E3949AEFC92ED12C84E1A4
:1001A000F82E17C085B18F7385B9EBB8C6010197DA
:1001B000F1F72E982F9AF801EC0FFD1F80818BB973
:1001C000DFDFDCDF85B18F7385B9FBB8D9DFD6DF20
:1001D0002196F80101900020E9F73197E01BF10B1F
:1001E000CE17DF07F8F280E090E0CDB7DEB7E8E0A9
:1001F0004EC09C0180E680937C00283031051CF0C5
:100200002FEF3FEF1CC090917C00922B90937C00CD
:10021000809164008E7F8093640080917A00806476
:1002200080937A0080917A0086FDFCCF209178003F
:1002300030917900932F80E030E0282B392BC901D1
:1002400008952F923F924F925F926F927F928F927A
:100250009F92AF92BF92CF92DF92EF92FF920F9355
:100260001F93CF93DF93CDB7DEB7CA1BDB0B0FB65F
:10027000F894DEBF0FBECDBF09942A88398848881C
:100280005F846E847D848C849B84AA84B984C884B2
:10029000DF80EE80FD800C811B81AA81B981CE0FA9
:1002A000D11D0FB6F894DEBF0FBECDBFED0108958E
:0402B000F894FFCFF0
:00000001FF
