:1000000019C033C032C031C030C02FC02EC02DC087
:100010002CC02BC02AC029C028C027C026C025C09C
:1000200024C023C022C021C020C01FC01EC01DC0CC
:100030001CC01BC011241FBECFEFD4E0DEBFCDBF5C
:1000400011E0A0E0B1E0E8EDF2E002C005900D9211
:10005000A030B107D9F711E0A0E0B1E001C01D92D6
:10006000A030B107E1F728D035C1CACF1092C50042
:1000700083E38093C4008EE88093C20088E180937C
:10008000C1000895FC0101900020E9F73197E81BB9
:10009000F90B20E030E00CC04091C00045FFFCCFE0
:1000A000DC01A20FB31F4C914093C6002F5F3F4F5E
:1000B0002E173F0789F70895A0E1B0E0E1E6F0E0F0
:1000C000E0C01092C50083E38093C4008EE8809363
:1000D000C20088E18093C10022D080E090E08E01D0
:1000E0000F5F1F4F2091C00027FFFCCF2091C6005B
:1000F0003091C00035FFFCCF2C3259F4800F911F96
:10010000FC011082C801BEDFC8014ED080E090E043
:10011000E9CFF801E80FF91F20830196E3CF8FEFB5
:100120008AB988E893E1FC013197F1F72D9825B160
:100130002F7325B938E33BB92D9A2D98E4ECF9E0FB
:100140003197F1F725B12F7325B93BB92D9A2D9829
:1001500022EE34E0F9013197F1F72D9A2D98F9014B
:100160003197F1F745B14F7345B941E04BB92D9A3D
:100170002D98FC013197F1F745B14F7345B946E031
:100180004BB92D9A2D98F9013197F1F725B12F73BD
:1001900025B92EE02BB92D9A2D980197F1F70895E6
:1001A0002D9808952D9A0895A0E0B0E0E9EDF0E0D3
:1001B00064C08C01C0E0D0E0EE24E3949AEFC92E35
:1001C000D12C84E1F82E17C085B18F7385B9EBB8B7
:1001D000C6010197F1F72E982F9AF801EC0FFD1F39
:1001E00080818BB9DFDFDCDF85B18F7385B9FBB828
:1001F000D9DFD6DF2196F80101900020E9F7319789
:10020000E01BF10BCE17DF07F8F280E090E0CDB7EE
:10021000DEB7E8E04EC09C0180E680937C00283089
:1002200031051CF02FEF3FEF1CC090917C00922B0A
:1002300090937C00809164008E7F80936400809115
:100240007A00806480937A0080917A0086FDFCCFEA
:100250002091780030917900932F80E030E0282BB6
:10026000392BC90108952F923F924F925F926F925E
:100270007F928F929F92AF92BF92CF92DF92EF9236
:10028000FF920F931F93CF93DF93CDB7DEB7CA1BB7
:10029000DB0B0FB6F894DEBF0FBECDBF09942A88E2
:1002A000398848885F846E847D848C849B84AA848A
:1002B000B984C884DF80EE80FD800C811B81AA8117
:1002C000B981CE0FD11D0FB6F894DEBF0FBECDBFE2
:0802D000ED010895F894FFCF41
:00000001FF
