:1000000019C033C032C031C030C02FC02EC02DC087
:100010002CC02BC02AC029C028C027C026C025C09C
:1000200024C023C022C021C020C01FC01EC01DC0CC
:100030001CC01BC011241FBECFEFD4E0DEBFCDBF5C
:1000400011E0A0E0B1E0E6EBF3E002C005900D9214
:10005000A030B107D9F711E0A0E0B1E001C01D92D6
:10006000A030B107E1F732D0A4C1CACF1092C500C9
:1000700083E38093C4008EE88093C20088E180937C
:10008000C1000895FC0101900020E9F73197E81BB9
:10009000F90B20E030E069E170E014C04091C0004D
:1000A00045FFFCCF40E157E2DB011197F1F74150EA
:1000B0005040D1F7DC01A20FB31F4C914093C60012
:1000C0002F5F3F4F2E173F0749F70895A0E1B0E09B
:1000D000EBE6F0E043C14BD01092C50083E3809380
:1000E000C4008EE88093C20088E18093C100FE01C5
:1000F000319680E1DF011D928A95E9F780E08F015A
:1001000091E1E92EF12CEC0EFD1E01C080E09091F2
:10011000C00097FFFCCF9091C6002091C00025FF42
:10012000FCCF9C3259F4188AC801ACDFC801B2D0A8
:10013000F8011192EE15FF05E1F7E8CFE82FFF2750
:10014000E7FDF095E00FF11F90838F5FE0CF2D98D2
:1001500008952D9A08952D9A80E197E229E130E0E3
:10016000F9013197F1F70197D9F72D9808951F9369
:100170008FEF8AB984B1806E84B980E29EE429E170
:1001800030E0F9013197F1F70197D9F785B18F7117
:1001900085B988E38BB9DFDF88E99AE329E130E0AC
:1001A000F9013197F1F70197D9F785B18F7385B9C7
:1001B00088E38BB9D0DF88E99AE329E130E0F901DF
:1001C0003197F1F70197D9F7C6DF80E29EE429E184
:1001D00030E0F9013197F1F70197D9F7BCDF88E9F1
:1001E0009AE329E130E0F9013197F1F70197D9F766
:1001F00085B18F7385B981E08BB9ADDF88EA91E66F
:1002000029E130E0F9013197F1F70197D9F785B18C
:100210008F7385B986E08BB99EDF88E99AE329E17F
:1002200030E0F9013197F1F70197D9F785B18F7374
:1002300085B98CE08BB98FDF88EA91E629E130E05F
:10024000F9013197F1F70197D9F785B18F7385B926
:1002500081E08BB980DF85B18F7085B92F9A81E6F7
:100260008BB979DF85B18F7085B92F9A13E71BB9E8
:1002700072DF85B18F7085B92F9A1BB96CDF80E171
:1002800097E229E130E0F9013197F1F70197D9F7C9
:100290001F910895FF920F931F93CF93DF93182F11
:1002A000F92E85B18F7185B981E08BB954DF80E576
:1002B00093EC0197F1F780E090E001E607C085B18B
:1002C0008F7085B92F9A0BB946DFCE01A12FBF2DB4
:1002D000FD0101900020E9F73197EA1BFB0BEC01CF
:1002E00021968E179F0758F380E090E0CDB7DEB7D8
:1002F000E5E051C09C0180E680937C002830310508
:100300001CF02FEF3FEF1CC090917C00922B90933C
:100310007C00809164008E7F8093640080917A00DD
:10032000806480937A0080917A0086FDFCCF2091D2
:10033000780030917900932F80E030E0282B392B22
:10034000C90108952F923F924F925F926F927F92D0
:100350008F929F92AF92BF92CF92DF92EF92FF92D5
:100360000F931F93CF93DF93CDB7DEB7CA1BDB0B81
:100370000FB6F894DEBF0FBECDBF09942A88398826
:1003800048885F846E847D848C849B84AA84B9842D
:10039000C884DF80EE80FD800C811B81AA81B98139
:1003A000CE0FD11D0FB6F894DEBF0FBECDBFED014D
:0603B0000895F894FFCF50
:00000001FF
