:020000040000FA
:2B000000FFFF62FF2900FFFFFFFFFFFFFFFFFFFFFFFFFFFFFFFFFFFFFFFFFFFFFFFFFFFFFFFFFFFFFFFFFFFFFFFFFF72
:2B002B00601886611886611886611886611886611886010000000018866118866118866118866118866118866180E74F
:2B005600401004411004411004411004411004411004010000000010044110044110044110044110044110044180E71C
:2B008100000000000000000000000000000000000000000000000000000000000000000000000000000000000080E7ED
:2B00AC00000000000000000000000000000000000000000000000000000000000000000000000000000000000080E7C2
:2B00D700000000000000000000000000000000000000000000000000000000000000000000000000000000000080E797
:2B010200000000000000000000000000000000000000000000000000000000000000000000000000000000000080E76B
:2B012D00000000000000000000000000000000000000000000000000000000000000000000000000000000000080E740
:2B015800000000000000000000000000000000000000000000000000000000000000000000000000000000000080E715
:2B018300000000000000000000000000000000000000000000000000000000000000000000000000000000000080E7EA
:2B01AE00000000000000000000000000000000000000000000000000000000000000000000000000000000000080E7BF
:2B01D900080000000000000000000000000000000000000000000000000000000000000000000000000000000080EF84
:2B020400000000000000000000000000000000000000000000000000000000000000000000000000000000000080E768
:2B022F00000000000000000000000000000000000000000000000000000000000000000000000000000000000080E73D
:2B025A00000000000000000000000000000000000000000000000000000000000000000000000000000000000080E712
:2B028500000000000000000004000000000000000000100000000000000000000000000000000000000000000080B703
:2B02B000080000000000000000000000000000000000000000000000000000000000000000000000000000000080EFAC
:2B02DB00000000000000000000000000000000000000000000000000000000000000000000000000000000000080E791
:2B030600000000000000000000000000000000000000000000000000000000000000000000000000000000000080E765
:2B033100000000000000000000000000000000000000000000000000000000000000000000000000000000000080E73A
:2B035C00000000000000000100000000000000000000000000000000000000000000000000000000000000000080F6FF
:2B038700000000000000208000000000000000000080000000000000000000000000000000000000000000000000CF5C
:2B03B200020000000000000000000000000000000000000000000000000000000000000000000000000000000008ED29
:2B03DD00000000000000000000000000000000000000000000000000000000000000000000000000000000000080E78E
:2B040800000000000000000000000000000000000000000000000000000000000000000000000000000000000080E762
:2B043300000000000000208000000000000000000080000000000000000000000000000000000000000000000000CFAF
:2B045E00000000000000000000000000000000000000000000000000000000000000000000000000000000000080E70C
:2B048900020000000000000000000000000000000000000000000000000000000000000000000000000000000008ED51
:2B04B400800008800008800008800008800008800008000000000020000220000220000220000220000220000280E7BA
:2B04DF00800008800008800008800008800008800008000000000020000220000220000220000220000220000280E78F
:2B050A00000000000000000800000000000000000000000000000000000000000000000000000000000000000000E7D7
:2B0535000200000000006000A6000000000000000000000000000000000000000000000000000000000000000088CF3C
:2B056000020000000000200082000000000000000000000000000000000000000000000000000000000000000000E5E7
:2B058B0004000000000040002D000000000000000000000000000000000000000000000000000000000000000000D9FB
:2B05B600020000000000A0010A000000000000000000000000000000000000000000000000000000000000000080F4F9
:2B05E100020000000000A00122100000000000000000000000000000000000000000000000000000000000000000CE4C
:2B060C00020000000000000008000000000000000000000000000000000000000000000000000000000000000088E54C
:2B063700000000000000000008100000000000000000000000000000000000000000000000000000000000000000FF81
:2B066200000000000000000000000000000000000018000000000000000000000000000000000000000000000000FE57
:2B068D00000000000000E0137600000000000000001A00000000000000000000000000000000000000000000008093AC
:2B06B80002000000000000049800000000000000001A000000000000000000000000000000000000000000000088894E
:2B06E30000000000000040003400000000000000001C0000000000000000000000000000000000000000000000008DCF
:2B070E0000000000000000000000000000000000001A000000000000000000000000000000000000000000000000DEC8
:2B07390000000000000080092001000000000000001A000000000000000000000000000000000000000000000000E4ED
:2B076400000000000000800198000000000000000018000000000000000000000000000000000000000000000080FEBB
:2B078F00020000000000800100000000000000000018000000000000000000000000000000000000000000000008EDAF
:2B07BA00000000000000000050000000000000000000000000000000000000000000000000000000000000000080B292
:2B07E500000000000000E01336000000000000000000000000000000000000000000000000000000000000000000EED2
:2B081000000000000000800930000000000000000000000000000000000000000000000000000000000000000080CDB7
:2B083B00020000000000400214000000000000000000000000000000000000000000000000000000000000000008DE54
:2B086600000000000000000410000000000000000000000000000000000000000000000000000000000000000080B221
:2B089100000000000000000090000000000000000000000000000000000000000000000000000000000000000000F6B6
:2B08BC00000000000000800190000000000000000000000000000000000000000000000000000000000000000080EF91
:2B08E700000000000000000028000000000000000000000000000000000000000000000000000000000000000000CDF1
:2B091200020000000000000040000000000000000000000000000000000000000000000000000000000000000008A9C7
:2B093D00000000000000600B06000000000000000000000000000000000000000000000000000000000000000000D44A
:2B096800000000000000200002000000000000000000000000000000000000000000000000000000000000000080E7DB
:2B09930000000000000040058C000000000000000000000000000000000000000000000000000000000000000080BA2E
:2B09BE00020000000000A0000A000000000000000000000000000000000000000000000000000000000000000008ED6D
:2B09E900000000000000A00922100000000000000000000000000000000000000000000000000000000000000080CCBC
:2B0A1400000000000000000008000000000000000000000000000000000000000000000000000000000000000000EFC0
:2B0A3F00000000000000000109100000000000000000000000000000000000000000000000000000000000000000FE74
:2B0A6A00000000000000000000000000000000000000000000000000000000000000000000000000000000000080E7FA
:2B0A9500020000000000E01276000000000000000000000000000000000000000000000000000000000000000088B193
:2B0AC000000000000000A00418000000000000000000000000000000000000000000000000000000000000000080923D
:2B0AEB00000000000000C0008C000000000000000000000000000000000000000000000000000000000000000000E7AD
:2B0B1600000000000000200000000000000000000000000000000000000000000000000000000000000000000080C74D
:2B0B4100020000000000A00420010000000000000000000000000000000000000000000000000000000000000088A298
:2B0B6C00000000000000000018000000000000000000000000000000000000000000000000000000000000000000FE48
:2B0B9700000000000000800041000000000000000000000000000000000000000000000000000000000000000000BBB7
:2B0BC20000000000000080052000000000000000000000000000000000000000000000000000000000000000000098CB
:2B0BED00000000000000E00106000000000000000000000000000000000000000000000000000000000000000000FEF8
:2B0C1800020000000000001040000000000000000000000000000000000000000000000000000000000000000008A8AF
:2B0C4300000000000000400024000000000000000000000000000000000000000000000000000000000000000080C5DD
:2B0C6E00000000000000000000000000000000000000000000000000000000000000000000000000000000000080E7F4
:2B0C9900000000000000000000000000000000000000000000000000000000000000000000000000000000000080E7C9
:2B0CC400020000000000000018000000000000000000000000000000000000000000000000000000000000000088F46F
:2B0CEF00000000000000000018000000000000000000000000000000000000000000000000000000000000000000FEC4
:2B0D1A00000000000000000800000000000000000000000000000000000000000000000000000000000000000000E7BF
:2B0D4500000000000000E00306010000000000000000000000000000000000000000000000000000000000000000DDBC
:2B0D70000000000000000000420000000000000000000000000000000000000000000000000000000000000000808313
:2B0D9B00020000000000C0122C000000000000000000000000000000000000000000000000000000000000000008EC39
:2B0DC60000000000000000010A000000000000000000000000000000000000000000000000000000000000000000DE19
:2B0DF100000000000000808022100000000000000000000000000000000000000000000000000000000000000000F5B0
:2B0E1C00000000000000000408000000000000000000000000000000000000000000000000000000000000000000ABF4
:2B0E4700020000000000800008100000000000000000000000000000000000000000000000000000000000000008FDE1
:2B0E7200000000000000800500000000000000000000000000000000000000000000000000000000000000000000BA16
:2B0E9D00000000000000E00196000000000000000000000000000000000000000000000000000000000000000080EF44
:2B0EC800000000000000800130000000000000000000000000000000000000000000000000000000000000000000CD81
:2B0EF300000000000000C00514000000000000000000000000000000000000000000000000000000000000000000AB50
:2B0F1E00020000000000000050000000000000000000000000000000000000000000000000000000000000000008B896
:2B0F4900000000000000800131000000000000000000000000000000000000000000000000000000000000000000DDEE
:2B0F7400000000000000800190000000000000000000000000000000000000000000000000000000000000000080EFD2
:2B0F9F00000000000000800130000000000000000000000000000000000000000000000000000000000000000000CDA9
:2B0FCA00000000000000002000000000000000000000000000000000000000000000000000000000000000000080E577
:2B0FF500000000000000000200020000000000000000100000000000000000000000000000000000000000000080D766
:2B102000800008800008000000800008800008800000000000000020000220000220000220000220000220000200EF4A
:2B104B0080000880000880000880000880000880000C000000000020000220000220000220000220000220000280A753
:2B107600000000000000008A22000000000000000000000000000000000000000000000000000000000000000000CFD4
:2B10A100000000000000000000000000000000000000000000000000000000000000000000000000000000000080E7BD
:2B10CC00000000000000000000000000000000000000000000000000000000000000000000000000000000000080E792
:2B10F700000220000000800008000000000000000000000000000000000000000000000000000000000000000080E7BD
:2B112200000220000000008A22000000000000000000000000000000000000000000000000000000000000000000CF05
:2B114D00000000000000800001100000000000000000000000000000000000000000000000000000000000000000EFF7
:2B117800000000000000000000000000000000000000000000000000000000000000000000000000000000000080E7E5
:2B11A300000000000000000000000000000000000000000000000000000000000000000000000000000000000080E7BA
:2B11CE00000000000000000000000000000000000000000000000000000000000000000000000000000000000080E78F
:2B11F900000000000000000018000000000000000000000000000000000000000000000000000000000000000000FEB5
:2B122400000000000000000400000000000000000000000000000000000000000000000000000000000000000080A378
:2B124F00000000000000000000000000000000000000000000000000000000000000000000000000000000000080E70D
:2B127A00000000000000000000000000000000000000000000000000000000000000000000000000000000000080E7E2
:2B12A500000000000000000000000000000000000000000000000000000000000000000000000000000000000080E7B7
:2B12D000000000000000000000000000000000000000000000000000000000000000000000000000000000000080E78C
:2B12FB00000000000000002020080000000000000000000000000000000000000000000000000000000000000080CF31
:2B132600000000000000000000000000000000000000000000000000000000000000000000000000000000000080E735
:2B135100000000000000000000000000000000000000000000000000000000000000000000000000000000000080E70A
:2B137C00000000000000000000000000000000000000000000000000000000000000000000000000000000000080E7DF
:2B13A700000000000000000000000000000000000000000000000000000000000000000000000000000000000080E7B4
:2B13D200000000000000000000000000000000000000000000000000000000000000000000000000000000000080E789
:2B13FD00000000000000000000000000000000000000000000000000000000000000000000000000000000000080E75E
:2B142800000000000000000000000000000000000000000000000000000000000000000000000000000000000080E732
:2B145300000000000000000000000000000000000000000000000000000000000000000000000000000000000080E707
:2B147E00000000000000000000000000000000000000000000000000000000000000000000000000000000000080E7DC
:2B14A900000000000000000000000000000000000000000000000000000000000000000000000000000000000080E7B1
:2B14D400000000000000000000000000000000000000000000000000000000000000000000000000000000000080E786
:2B14FF00000000000000000000000000000000000000000000000000000000000000000000000000000000000080E75B
:2B152A00000000000000000000000000000000000000000000000000000000000000000000000000000000000080E72F
:2B155500000000000000000000000000000000000000000000000000000000000000000000000000000000000080E704
:2B158000000000000000000000000000000000000000000000000000000000000000000000000000000000000080E7D9
:2B15AB00000000000000000000000000000000000000000000000000000000000000000000000000000000000080E7AE
:2B15D600000000000000000000000000000000000000000000000000000000000000000000000000000000000080E783
:2B160100000000000000000000000000000000000000000000000000000000000000000000000000000000000080E757
:2B162C00020000000000000000000000000000000000000000000000000000000000000000000000000000000008ED9C
:2B165700000000000000000000000000000000000000000000000000000000000000000000000000000000000080E701
:2B168200000000000000000000000000000000000000000000000000000000000000000000000000000000000080E7D6
:2B16AD00000000000000000000000000000000000000000000000000000000000000000000000000000000000080E7AB
:2B16D800000000000000000000000000000000000000000000000000000000000000000000000000000000000080E780
:2B170300020000000000000000000000000000000000000000000000000000000000000000000000000000000008EDC4
:2B172E00800008800008800008800008800008800008000000000020000220000220000220000220000220000280E72D
:2B175900800008800008800008800008800008800008000000000020000220000220000220000220000220000280E702
:2B178400000000000000000000000000000000000000000000000000000000000000000000000000000000000080E7D3
:2B17AF00020000000000000000000000000000000000000000000000000000000000000000000000000000000008ED18
:2B17DA00000000000000000000000000000000000000000000000000000000000000000000000000000000000080E77D
:2B180500000000000000000000000000000000000000000000000000000000000000000000000000000000000080E751
:2B183000000000000000000000000000000000000000000000000000000000000000000000000000000000000080E726
:2B185B00000000000000000000000000000000000000000000000000000000000000000000000000000000000080E7FB
:2B188600020000000000000000000000000000000000000000000000000000000000000000000000000000000008ED40
:2B18B100000000000000000000000000000000000000000000000000000000000000000000000000000000000080E7A5
:2B18DC00000000000000000000000000000000000000000000000000000000000000000000000000000000000080E77A
:2B190700000000000000000000000000000000000000000000000000000000000000000000000000000000000080E74E
:2B193200020000000000000000000000000000000000000000000000000000000000000000000000000000000008ED93
:2B195D00000000000000000000000000000000000000000000000000000000000000000000000000000000000080E7F8
:2B198800000000000000000000000000000000000000000000000000000000000000000000000000000000000080E7CD
:2B19B300000000000000000000000000000000000000000000000000000000000000000000000000000000000080E7A2
:2B19DE00000000000000000000000000000000000000000000000000000000000000000000000000000000000080E777
:2B1A0900020000000000000000000000000000000000000000000000000000000000000000000000000000000008EDBB
:2B1A3400000000000000000000000000000000000000000000000000000000000000000000000000000000000080E720
:2B1A5F00000000000000000000000000000000000000000000000000000000000000000000000000000000000080E7F5
:2B1A8A00000000000000000000000000000000000000000000000000000000000000000000000000000000000080E7CA
:2B1AB500020000000000000000000000000000000000000000000000000000000000000000000000000000000008ED0F
:2B1AE000000000000000000000000000000000000000000000000000000000000000000000000000000000000080E774
:2B1B0B00000000000000000000000000000000000000000000000000000000000000000000000000000000000080E748
:2B1B3600000000000000000000000000000000000000000000000000000000000000000000000000000000000080E71D
:2B1B6100000000000000000000000000000000000000000000000000000000000000000000000000000000000080E7F2
:2B1B8C00020000000000000000000000000000000000000000000000000000000000000000000000000000000008ED37
:2B1BB700000000000000000000000000000000000000000000000000000000000000000000000000000000000080E79C
:2B1BE200000000000000000000000000000000000000000000000000000000000000000000000000000000000080E771
:2B1C0D00000000000000000000000000000000000000000000000000000000000000000000000000000000000080E745
:2B1C3800020000000000000000000000000000000000000000000000000000000000000000000000000000000008ED8A
:2B1C6300000000000000000000000000000000000000000000000000000000000000000000000000000000000080E7EF
:2B1C8E00000000000000000000000000000000000000000000000000000000000000000000000000000000000080E7C4
:2B1CB900000000000000000000000000000000000000000000000000000000000000000000000000000000000080E799
:2B1CE400000000000000000000000000000000000000000000000000000000000000000000000000000000000080E76E
:2B1D0F00020000000000000000000000000000000000000000000000000000000000000000000000000000000008EDB2
:2B1D3A00000000000000000000000000000000000000000000000000000000000000000000000000000000000080E717
:2B1D6500000000000000000000000000000000000000000000000000000000000000000000000000000000000080E7EC
:2B1D9000000000000000000000000000000000000000000000000000000000000000000000000000000000000080E7C1
:2B1DBB00020000000000000000000000000000000000000000000000000000000000000000000000000000000008ED06
:2B1DE600000000000000000000000000000000000000000000000000000000000000000000000000000000000080E76B
:2B1E1100000000000000000000000000000000000000000000000000000000000000000000000000000000000080E73F
:2B1E3C00000000000000000000000000000000000000000000000000000000000000000000000000000000000080E714
:2B1E6700000000000000000000000000000000000000000000000000000000000000000000000000000000000080E7E9
:2B1E9200020000000000000000000000000000000000000000000000000000000000000000000000000000000008ED2E
:2B1EBD00000000000000000000000000000000000000000000000000000000000000000000000000000000000080E793
:2B1EE800000000000000000000000000000000000000000000000000000000000000000000000000000000000080E768
:2B1F1300000000000000000000000000000000000000000000000000000000000000000000000000000000000080E73C
:2B1F3E00020000000000000000000000000000000000000000000000000000000000000000000000000000000008ED81
:2B1F6900000000000000000000000000000000000000000000000000000000000000000000000000000000000080E7E6
:2B1F9400000000000000000000000000000000000000000000000000000000000000000000000000000000000080E7BB
:2B1FBF00000000000000000000000000000000000000000000000000000000000000000000000000000000000080E790
:2B1FEA00000000000000000000000000000000000000000000000000000000000000000000000000000000000080E765
:2B201500020000000000000000000000000000000000000000000000000000000000000000000000000000000008EDA9
:2B204000000000000000000000000000000000000000000000000000000000000000000000000000000000000080E70E
:2B206B00000000000000000000000000000000000000000000000000000000000000000000000000000000000080E7E3
:2B209600000000000000000000000000000000000000000000000000000000000000000000000000000000000080E7B8
:2B20C100020000000000000000000000000000000000000000000000000000000000000000000000000000000008EDFD
:2B20EC00000000000000000000000000000000000000000000000000000000000000000000000000000000000080E762
:2B211700000000000000000000000000000000000000000000000000000000000000000000000000000000000080E736
:2B214200000000000000000000000000000000000000000000000000000000000000000000000000000000000080E70B
:2B216D00000000000000000000000000000000000000000000000000000000000000000000000000000000000080E7E0
:2B219800020000000000000000000000000000000000000000000000000000000000000000000000000000000008ED25
:2B21C300000000000000000000000000000000000000000000000000000000000000000000000000000000000080E78A
:2B21EE00000000000000000000000000000000000000000000000000000000000000000000000000000000000080E75F
:2B221900000000000000000000000000000000000000000000000000000000000000000000000000000000000080E733
:2B224400000000000000000000000000000000000000000000000000000000000000000000000000000000000080E708
:2B226F00000000000000000000000000000000000000000000000000000000000000000000000000000000000080E7DD
:2B229A00800008800008800008800008800008800008000000000020000220000220000220000220000220000280E7B6
:2B22C500800008800008800008800008800008800008000000000020000220000220000220000220000220000280E78B
:2B22F000000000000000000000000000000000000000000000000000000000000000000000000000000000000080E75C
:2B231B00000000000000000000000000000000000000000000000000000000000000000000000000000000000080E730
:2B234600000000000000000000000000000000000000000000000000000000000000000000000000000000000080E705
:2B237100000000000000000000000000000000000000000000000000000000000000000000000000000000000080E7DA
:2B239C00000000000000000000000000000000000000000000000000000000000000000000000000000000000080E7AF
:2B23C700000000000000000000000000000000000000000000000000000000000000000000000000000000000080E784
:2B23F200000000000000000000000000000000000000000000000000000000000000000000000000000000000080E759
:2B241D00000000000000000000000000000000000000000000000000000000000000000000000000000000000080E72D
:2B244800000000000000000000000000000000000000000000000000000000000000000000000000000000000080E702
:2B247300000000000000000000000000000000000000000000000000000000000000000000000000000000000080E7D7
:2B249E00000000000000000000000000000000000000000000000000000000000000000000000000000000000080E7AC
:2B24C900000000000000000000000000000000000000000000000000000000000000000000000000000000000080E781
:2B24F400000000000000000000000000000000000000000000000000000000000000000000000000000000000080E756
:2B251F00000000000000000000000000000000000000000000000000000000000000000000000000000000000080E72A
:2B254A00000000000000000000000000000000000000000000000000000000000000000000000000000000000080E7FF
:2B257500000000000000000000000000000000000000000000000000000000000000000000000000000000000080E7D4
:2B25A000000000000000000000000000000000000000000000000000000000000000000000000000000000000080E7A9
:2B25CB00000000000000000000000000000000000000000000000000000000000000000000000000000000000080E77E
:2B25F600000000000000000000000000000000000000000000000000000000000000000000000000000000000080E753
:2B262100000000000000000000000000000000000000000000000000000000000000000000000000000000000080E727
:2B264C00000000000000000000000000000000000000000000000000000000000000000000000000000000000080E7FC
:2B267700000000000000000000000000000000000000000000000000000000000000000000000000000000000080E7D1
:2B26A200000000000000000000000000000000000000000000000000000000000000000000000000000000000080E7A6
:2B26CD00000000000000000000000000000000000000000000000000000000000000000000000000000000000080E77B
:2B26F800000000000000000000000000000000000000000000000000000000000000000000000000000000000080E750
:2B272300000000000000000000000000000000000000000000000000000000000000000000000000000000000080E724
:2B274E00000000000000000000000000000000000000000000000000000000000000000000000000000000000080E7F9
:2B277900000000000000000000000000000000000000000000000000000000000000000000000000000000000080E7CE
:2B27A400000000000000000000000000000000000000000000000000000000000000000000000000000000000080E7A3
:2B27CF00000000000000000000000000000000000000000000000000000000000000000000000000000000000080E778
:2B27FA00000000000000000000000000000000000000000000000000000000000000000000000000000000000080E74D
:2B282500000000000000000000000000000000000000000000000000000000000000000000000000000000000080E721
:2B285000000000000000000000000000000000000000000000000000000000000000000000000000000000000080E7F6
:2B287B00000000000000000000000000000000000000000000000000000000000000000000000000000000000080E7CB
:2B28A600020000000000000000000000000000000000000000000000000000000000000000000000000000000008ED10
:2B28D100000000000000000000000000000000000000000000000000000000000000000000000000000000000080E775
:2B28FC00000000000000000000000000000000000000000000000000000000000000000000000000000000000080E74A
:2B292700000000000000000000000000000000000000000000000000000000000000000000000000000000000080E71E
:2B295200000000000000000000000000000000000000000000000000000000000000000000000000000000000080E7F3
:2B297D00020000000000000000000000000000000000000000000000000000000000000000000000000000000008ED38
:2B29A800800008800008800008800008800008800008000000000020000220000220000220000220000220000280E7A1
:2B29D300800008800008800008800008800008800008000000000020000220000220000220000220000220000280E776
:2B29FE00000000000000000000000000000000000000000000000000000000000000000000000000000000000080E747
:2B2A2900020000000000000000000000000000000000000000000000000000000000000000000000000000000008ED8B
:2B2A5400000000000000000000000000000000000000000000000000000000000000000000000000000000000080E7F0
:2B2A7F00000000000000000000000000000000000000000000000000000000000000000000000000000000000080E7C5
:2B2AAA00000000000000000000000000000000000000000000000000000000000000000000000000000000000080E79A
:2B2AD500000000000000000000000000000000000000000000000000000000000000000000000000000000000080E76F
:2B2B0000020000000000000000000000000000000000000000000000000000000000000000000000000000000008EDB3
:2B2B2B00000000000000000000000000000000000000000000000000000000000000000000000000000000000080E718
:2B2B5600000000000000000000000000000000000000000000000000000000000000000000000000000000000080E7ED
:2B2B8100000000000000000000000000000000000000000000000000000000000000000000000000000000000080E7C2
:2B2BAC00020000000000000000000000000000000000000000000000000000000000000000000000000000000008ED07
:2B2BD700000000000000000000000000000000000000000000000000000000000000000000000000000000000080E76C
:2B2C0200000000000000000000000000000000000000000000000000000000000000000000000000000000000080E740
:2B2C2D00000000000000000000000000000000000000000000000000000000000000000000000000000000000080E715
:2B2C5800000000000000000000000000000000000000000000000000000000000000000000000000000000000080E7EA
:2B2C8300020000000000000000000000000000000000000000000000000000000000000000000000000000000008ED2F
:2B2CAE00000000000000000000000000000000000000000000000000000000000000000000000000000000000080E794
:2B2CD900000000000000000000000000000000000000000000000000000000000000000000000000000000000080E769
:2B2D0400000000000000000000000000000000000000000000000000000000000000000000000000000000000080E73D
:2B2D2F00020000000000000000000000000000000000000000000000000000000000000000000000000000000008ED82
:2B2D5A00000000000000000000000000000000000000000000000000000000000000000000000000000000000080E7E7
:2B2D8500000000000000000000000000000000000000000000000000000000000000000000000000000000000080E7BC
:2B2DB000000000000000000000000000000000000000000000000000000000000000000000000000000000000080E791
:2B2DDB00000000000000000000000000000000000000000000000000000000000000000000000000000000000080E766
:2B2E0600020000000000000000000000000000000000000000000000000000000000000000000000000000000008EDAA
:2B2E3100000000000000000000000000000000000000000000000000000000000000000000000000000000000080E70F
:2B2E5C00000000000000000000000000000000000000000000000000000000000000000000000000000000000080E7E4
:2B2E8700000000000000000000000000000000000000000000000000000000000000000000000000000000000080E7B9
:2B2EB200020000000000000000000000000000000000000000000000000000000000000000000000000000000008EDFE
:2B2EDD00000000000000000000000000000000000000000000000000000000000000000000000000000000000080E763
:2B2F0800000000000000000000000000000000000000000000000000000000000000000000000000000000000080E737
:2B2F3300000000000000000000000000000000000000000000000000000000000000000000000000000000000080E70C
:2B2F5E00000000000000000000000000000000000000000000000000000000000000000000000000000000000080E7E1
:2B2F8900020000000000000000000000000000000000000000000000000000000000000000000000000000000008ED26
:2B2FB400000000000000000000000000000000000000000000000000000000000000000000000000000000000080E78B
:2B2FDF00000000000000000000000000000000000000000000000000000000000000000000000000000000000080E760
:2B300A00000000000000000000000000000000000000000000000000000000000000000000000000000000000080E734
:2B303500020000000000000000000000000000000000000000000000000000000000000000000000000000000008ED79
:2B306000000000000000000000000000000000000000000000000000000000000000000000000000000000000080E7DE
:2B308B00000000000000000000000000000000000000000000000000000000000000000000000000000000000080E7B3
:2B30B600000000000000000000000000000000000000000000000000000000000000000000000000000000000080E788
:2B30E100000000000000000000000000000000000000000000000000000000000000000000000000000000000080E75D
:2B310C00020000000000000000000000000000000000000000000000000000000000000000000000000000000008EDA1
:2B313700000000000000000000000000000000000000000000000000000000000000000000000000000000000080E706
:2B316200000000000000000000000000000000000000000000000000000000000000000000000000000000000080E7DB
:2B318D00000000000000000000000000000000000000000000000000000000000000000000000000000000000080E7B0
:2B31B800020000000000000000000000000000000000000000000000000000000000000000000000000000000008EDF5
:2B31E300000000000000000000000000000000000000000000000000000000000000000000000000000000000080E75A
:2B320E00000000000000000000000000000000000000000000000000000000000000000000000000000000000080E72E
:2B323900000000000000000000000000000000000000000000000000000000000000000000000000000000000080E703
:2B326400000000000000000000000000000000000000000000000000000000000000000000000000000000000080E7D8
:2B328F00020000000000000000000000000000000000000000000000000000000000000000000000000000000008ED1D
:2B32BA00000000000000000000000000000000000000000000000000000000000000000000000000000000000080E782
:2B32E500000000000000000000000000000000000000000000000000000000000000000000000000000000000080E757
:2B331000000000000000000000000000000000000000000000000000000000000000000000000000000000000080E72B
:2B333B00020000000000000000000000000000000000000000000000000000000000000000000000000000000008ED70
:2B336600000000000000000000000000000000000000000000000000000000000000000000000000000000000080E7D5
:2B339100000000000000000000000000000000000000000000000000000000000000000000000000000000000080E7AA
:2B33BC00000000000000000000000000000000000000000000000000000000000000000000000000000000000080E77F
:2B33E700000000000000000000000000000000000000000000000000000000000000000000000000000000000080E754
:2B341200020000000000000000000000000000000000000000000000000000000000000000000000000000000008ED98
:2B343D00000000000000000000000000000000000000000000000000000000000000000000000000000000000080E7FD
:2B346800000000000000000000000000000000000000000000000000000000000000000000000000000000000080E7D2
:2B349300000000000000000000000000000000000000000000000000000000000000000000000000000000000080E7A7
:2B34BE00000000000000000000000000000000000000000000000000000000000000000000000000000000000080E77C
:2B34E900000000000000000000000000000000000000000000000000000000000000000000000000000000000080E751
:2B351400800008800008800008800008800008800008000000000020000220000220000220000220000220000280E729
:2B353F00800008800008800008800008800008800008000000000020000220000220000220000220000220000280E7FE
:2B356A00000000000000000000000000000000000000000000000000000000000000000000000000000000000080E7CF
:2B359500000000000000000000000000000000000000000000000000000000000000000000000000000000000080E7A4
:2B35C000000000000000000000000000000000000000000000000000000000000000000000000000000000000080E779
:2B35EB00000000000000000000000000000000000000000000000000000000000000000000000000000000000080E74E
:2B361600000000000000000000000000000000000000000000000000000000000000000000000000000000000080E722
:2B364100000000000000000000000000000000000000000000000000000000000000000000000000000000000080E7F7
:2B366C00000000000000000000000000000000000000000000000000000000000000000000000000000000000080E7CC
:2B369700000000000000000000000000000000000000000000000000000000000000000000000000000000000080E7A1
:2B36C200000000000000000000000000000000000000000000000000000000000000000000000000000000000080E776
:2B36ED00000000000000000000000000000000000000000000000000000000000000000000000000000000000080E74B
:2B371800000000000000000000000000000000000000000000000000000000000000000000000000000000000080E71F
:2B374300000000000000000000000000000000000000000000000000000000000000000000000000000000000080E7F4
:2B376E00000000000000000000000000000000000000000000000000000000000000000000000000000000000080E7C9
:2B379900000000000000000000000000000000000000000000000000000000000000000000000000000000000080E79E
:2B37C400000000000000000000000000000000000000000000000000000000000000000000000000000000000080E773
:2B37EF00000000000000000000000000000000000000000000000000000000000000000000000000000000000080E748
:2B381A00000000000000000000000000000000000000000000000000000000000000000000000000000000000080E71C
:2B384500000000000000000000000000000000000000000000000000000000000000000000000000000000000080E7F1
:2B387000000000000000000000000000000000000000000000000000000000000000000000000000000000000080E7C6
:2B389B00080000000000000000000000000000000000000000000000000000000000000000000000000000000080EF8B
:2B38C600060000000000000000000000000000000000000000000000000000000000000000000000000000000080E170
:2B38F100000000000000000000000000000000000000000000000000000000000000000000000000000000000080E745
:2B391C00100008000000000000000000000000000010000000000000000000000000000000000000000000000000EE6A
:2B394700000000000000000000000000000000000000000000000000000000000000000000000000000000000080E7EE
:2B397200000000000000000000000000000000000000000000000000000000000000000000000000000000000080E7C3
:2B399D00000000000000000000000000000000000000000000000000000000000000000000000000000000000080E798
:2B39C800000000000000000000000000000000000000000000000000000000000000000000000000000000000080E76D
:2B39F300000000000000000000000000000000000000000000000000000000000000000000000000000000000080E742
:2B3A1E00060000000000000000000000000000000000000000000000000000000000000000000000000000000080E116
:2B3A4900000000000000000000000000000000000000000000000000000000000000000000000000000000000080E7EB
:2B3A7400000000000000000000000000000000000000000000000000000000000000000000000000000000000080E7C0
:2B3A9F00000000000000000000000000000000000000000000000000000000000000000000000000000000000080E795
:2B3ACA00000000000100000000000000000000000000000000000000000000000000000000000000000000000080F65A
:2B3AF500000022000080000000000000000002080000080000000000000000000000000000000000000000000000C52D
:2B3B2000020000000000000000000000000000000000000000000000000000000000000000000000000000000008ED83
:2B3B4B00020000000000000000000000000000000000000000000000000000000000000000000000000000000080E5E8
:2B3B7600040000000000000000000000000000000000000000000000000000000000000000000000000000000080E3BD
:2B3BA100020022000080020000000000000002080000080000000000000000000000000000000000000000000000C57C
:2B3BCC00020040000000000000000000000000000000000000000000000000000000000000000000000000000080A16B
:2B3BF700020020000000000000000000000000000000000000000000000000000000000000000000000000000008CFAA
:2B3C2200800000800008800008800008800008800008000000000020000220000220000220000220000220000200EF94
:2B3C4D00800008800008800008800008800008800008000000000020000220000220000220000220000220000280E7E9
:2B3C7800000010010000000000000000000000000010000000000000000000000000000000000000000000000080E69A
:2B3CA30002003EE0130000000000000000003E01007E000000000000000000000000000000000000000000000008A955
:2B3CCE00020018200300000000000000000022000058000000000000000000000000000000000000000000000080B0E4
:2B3CF90004005C40030000000000000000003C00003C0000000000000000000000000000000000000000000000008DF8
:2B3D2400020018200100000000000000000092000018000000000000000000000000000000000000000000000000E5AA
:2B3D4F00020078200500000000000000000032000098000000000000000000000000000000000000000000000000E5FB
:2B3D7A00020018100900000000000000000000000018010000000000000000000000000000000000000000000088ED5D
:2B3DA500000038000300000000000000000058000018000000000000000000000000000000000000000000000000AB9D
:2B3DD000000000040000000000000000000000000000000000000000000000000000000000000000000000000080E361
:2B3DFB00000006E0130000000000000000003E010000000000000000000000000000000000000000000000000080875E
:2B3E2600020000200300000000000000000032000000000000000000000000000000000000000000000000000008ED25
:2B3E5100020064400300000000000000000034000000000000000000000000000000000000000000000000000080C326
:2B3E7C00040000300900000000000000000012080000000000000000000000000000000000000000000000000000FBC9
:2B3EA700020020200300000000000000000032000000000000000000000000000000000000000000000000000080C732
:2B3ED200020000000100000000000000000010000000000000000000000000000000000000000000000000000080E54D
:2B3EFD00020050000B000000000000000000B0000000000000000000000000000000000000000000000000000008B8CD
:2B3F2800000000000000000000000000000000000000000000000000000000000000000000000000000000000080E707
:2B3F530000003EE1130000000000000000003E010000000000000000000000000000000000000000000000000000BD15
:2B3F7E00000022200200000000000000000032000000000000000000000000000000000000000000000000000080F42E
:2B3FA90002003CC003000000000000000000340000000000000000000000000000000000000000000000000000089E12
:2B3FD400020092200900000000000000000012000000000000000000000000000000000000000000000000000080D49F
:2B3FFF000400122001000000000000000000B2000000000000000000000000000000000000000000000000000000F0BE
:2B402A00020000080000000000000000000090000000000000000000000000000000000000000000000000000000FCD5
:2B40550002003C80090000000000000000001000000000000000000000000000000000000000000000000000000096D3
:2B408000020040000000000000000000000000000040000000000000000000000000000000000000000000000008ED9E
:2B40AB00000006E0130000000000000000003E010026000000000000000000000000000000000000000000000080C547
:2B40D600000002200300000000000000000022000002000000000000000000000000000000000000000000000080F600
:2B41010000000440030000000000000000003C000004000000000000000000000000000000000000000000000000EF1D
:2B412C0002001A20010000000000000000001200001A000000000000000000000000000000000000000000000008ED0A
:2B41570002001A200B0000000000000000009200001A000000000000000000000000000000000000000000000080C703
:2B418200040018000100000000000000000080000018000000000000000000000000000000000000000000000000F26B
:2B41AD00020018000900000000000000000018000018000000000000000000000000000000000000000000000080ED27
:2B41D800020000000000000000000000000000000000000000000000000000000000000000000000000000000080E555
:2B420300020046E0130000000000000000003E010066000000000000000000000000000000000000000000000008CFD9
:2B422E0000000220020000000000000000003200004000000000000000000000000000000000000000000000008092BD
:2B425900000004C00300000000000000000034000024000000000000000000000000000000000000000000000000CD4E
:2B42840000001A2005000000000000000000920000000000000000000000000000000000000000000000000000809A24
:2B42AF0002001A200100000000000000000012000080000000000000000000000000000000000000000000000008D439
:2B42DA00020018000800000000000000000050000000010000000000000000000000000000000000000000000080A81E
:2B430500040018800300000000000000000010000010000000000000000000000000000000000000000000000080C18D
:2B433000020000000000000000000000000000000000000000000000000000000000000000000000000000000080E5FB
:2B435B00020066E0130000000000000000003E0100860000000000000000000000000000000000000000000000008394
:2B438600020002200300000000000000000032000002000000000000000000000000000000000000000000000008EDBC
:2B43B100000004400300000000000000000034000004000000000000000000000000000000000000000000000080E7FB
:2B43DC0000001A20110000000000000000005200001A000000000000000000000000000000000000000000000080A2DD
:2B44070000001A20010000000000000000001200001A000000000000000000000000000000000000000000000080E7BC
:2B443200020018000100000000000000000010000018000000000000000000000000000000000000000000000008ED27
:2B445D00000018000500000000000000000050000018000000000000000000000000000000000000000000000008EFB8
:2B448800000040000000000000000000000000000000000000000000000000000000000000000000000000000090B287
:2B44B300000026E0130000000000000000003E010066000000000000000000000000000000000000000000000008AB6D
:2B44DE00000012200200000000000000000022000002000000000000000000000000000000000000000000000008FE55
:2B4509000200B4C0030000000000000000003C000004000000000000000000000000000000000000000000000088DE68
:2B45340000009220050000000000000000005200001A000000000000000000000000000000000000000000000080EFCA
:2B455F0000003A20030000000000000000003200001A000000000000000000000000000000000000000000000080C543
:2B458A00000050000000000000000000000000000018000000000000000000000000000000000000000000000000ABF3
:2B45B500020018800B000000000000000000B8000018000000000000000000000000000000000000000000000008ED71
:2B45E000020000100000000000000000000000000010000000000000000000000000000000000000000000000080E42A
:2B460B00040026E0130000000000000000003E010016000000000000000000000000000000000000000000000080D0C2
:2B463600020002200300000000000000000022000012000000000000000000000000000000000000000000000080E599
:2B46610002000440030000000000000000003C000014000000000000000000000000000000000000000000000000FC99
:2B468C0002001A200100000000000000000012000012000000000000000000000000000000000000000000000088E535
:2B46B70000001A2009000000000000000000720000120000000000000000000000000000000000000000000000808908
:2B46E200000018000100000000000000000040000030000000000000000000000000000000000000000000000000988C
:2B470D000000180007000000000000000000180000100000000000000000000000000000000000000000000000808139
:2B473800000008008000000000000000000000000008000000000000000000000000000000000000000000000080EF57
:2B476300000000000200000000000000000000100000000000000000000000000000000000000000000000000080D5C4
:2B478E00800000000008800008800008800000800000000000000020000220000220000220000220000220000280E735
:2B47B900800008800008800008800008800008800008000000000020000220000220000220000220000220000280E772
:2B47E400000320208080020000000000000042000080080000000000000000000000000000000000000000000080B06B
:2B480F00000000000000000000000000000000000000000000000000000000000000000000000000000000000080E717
:2B483A00000110000000200002000000000000000000000000000000000000000000000000000000000000000080E7B9
:2B486500000000000000000000000000000000000000000000000000000000000000000000000000000000000080E7C1
:2B489000000220208080200002000000000042000080080000000000000000000000000000000000000000000080A3AC
:2B48BB00000008800000000000000000000008000004000000000000000000000000000000000000000000000000AF8F
:2B48E600000004400000000000000000000004000000000000000000000000000000000000000000000000000080A738
:2B491100000000000000000000000000000000000000000000000000000000000000000000000000000000000080E714
:2B493C00000000000000000000000000000000000000000000000000000000000000000000000000000000000080E7E9
:2B496700000000000000000000000000000000100000000000000000000000000000000000000000000000000090E69F
:2B499200100000040000000000000000000000040000000000000000000000000000000000000000000000000080F76B
:2B49BD00000000000000000000000000000000000000000000000000000000000000000000000000000000000080E768
:2B49E800000000000000000000000000000000000000000000000000000000000000000000000000000000000090F61E
:2B4A1300020000000000000000000000000000000000000000000000000000000000000000000000000000000080E511
:2B4A3E00000000000000000000000000000000000000000000000000000000000000000000000000000000000080E7E6
:2B4A6900000000000000000000000000000000000000000000000000000000000000000000000000000000000080E7BB
:2B4A9400080000094000000000000000000000000000000000000000000000000000000000000000000000000080E244
:2B4ABF00000000000000000000000000000000000000000000000000000000000000000000000000000000000080E765
:2B4AEA00000000000000000000000000000000000000000000000000000000000000000000000000000000000080E73A
:2B4B1500000000000000000000000000000000000000000000000000000000000000000000000000000000000080E70E
:2B4B4000000000000000000000000000000000000000000000000000000000000000000000000000000000000080E7E3
:2B4B6B00000000000000000000000000000000000000000000000000000000000000000000000000000000000080E7B8
:2B4B9600000000000000000000000000000000000000000000000000000000000000000000000000000000000080E78D
:2B4BC100000000000000000000000000000000000000000000000000000000000000000000000000000000000080E762
:2B4BEC00000000000000000000000000000000000000000000000000000000000000000000000000000000000080E737
:2B4C1700000000000000000000000000000000000000000000000000000000000000000000000000000000000080E70B
:2B4C4200000000000000000000000000000000000000000000000000000000000000000000000000000000000080E7E0
:2B4C6D00000000000000000000000000000000000000000000000000000000000000000000000000000000000080E7B5
:2B4C9800000000000000000000000000000000000000000000000000000000000000000000000000000000000080E78A
:2B4CC300000000000000000000000000000000000000000000000000000000000000000000000000000000000080E75F
:2B4CEE00000000000000000000000000000000000000000000000000000000000000000000000000000000000080E734
:2B4D1900000000000000000000000000000000000000000000000000000000000000000000000000000000000080E708
:2B4D4400000000000000000000000000000000000000000000000000000000000000000000000000000000000080E7DD
:2B4D6F00000000000000000000000000000000000000000000000000000000000000000000000000000000000080E7B2
:2B4D9A00020000000000000000000000000000000000000000000000000000000000000000000000000000000008EDF7
:2B4DC500000000000000000000000000000000000000000000000000000000000000000000000000000000000080E75C
:2B4DF000000000000000000000000000000000000000000000000000000000000000000000000000000000000080E731
:2B4E1B00000000000000000000000000000000000000000000000000000000000000000000000000000000000080E705
:2B4E4600000000000000000000000000000000000000000000000000000000000000000000000000000000000080E7DA
:2B4E7100020000000000000000000000000000000000000000000000000000000000000000000000000000000008ED1F
:2B4E9C00800008800008800008800008800008800008000000000020000220000220000220000220000220000280E788
:2B4EC700800008800008800008800008800008800008000000000020000220000220000220000220000220000280E75D
:2B4EF200000000000000000000000000000000000000000000000000000000000000000000000000000000000080E72E
:2B4F1D00020000000000000000000000000000000000000000000000000000000000000000000000000000000008ED72
:2B4F4800000000000000000000000000000000000000000000000000000000000000000000000000000000000080E7D7
:2B4F7300000000000000000000000000000000000000000000000000000000000000000000000000000000000080E7AC
:2B4F9E00000000000000000000000000000000000000000000000000000000000000000000000000000000000080E781
:2B4FC900000000000000000000000000000000000000000000000000000000000000000000000000000000000080E756
:2B4FF400020000000000000000000000000000000000000000000000000000000000000000000000000000000008ED9B
:2B501F00000000000000000000000000000000000000000000000000000000000000000000000000000000000080E7FF
:2B504A00000000000000000000000000000000000000000000000000000000000000000000000000000000000080E7D4
:2B507500000000000000000000000000000000000000000000000000000000000000000000000000000000000080E7A9
:2B50A000020000000000000000000000000000000000000000000000000000000000000000000000000000000008EDEE
:2B50CB00000000000000000000000000000000000000000000000000000000000000000000000000000000000080E753
:2B50F600000000000000000000000000000000000000000000000000000000000000000000000000000000000080E728
:2B512100000000000000000000000000000000000000000000000000000000000000000000000000000000000080E7FC
:2B514C00000000000000000000000000000000000000000000000000000000000000000000000000000000000080E7D1
:2B517700020000000000000000000000000000000000000000000000000000000000000000000000000000000008ED16
:2B51A200000000000000000000000000000000000000000000000000000000000000000000000000000000000080E77B
:2B51CD00000000000000000000000000000000000000000000000000000000000000000000000000000000000080E750
:2B51F800000000000000000000000000000000000000000000000000000000000000000000000000000000000080E725
:2B522300020000000000000000000000000000000000000000000000000000000000000000000000000000000008ED69
:2B524E00000000000000000000000000000000000000000000000000000000000000000000000000000000000080E7CE
:2B527900000000000000000000000000000000000000000000000000000000000000000000000000000000000080E7A3
:2B52A400000000000000000000000000000000000000000000000000000000000000000000000000000000000080E778
:2B52CF00000000000000000000000000000000000000000000000000000000000000000000000000000000000080E74D
:2B52FA00020000000000000000000000000000000000000000000000000000000000000000000000000000000008ED92
:2B532500000000000000000000000000000000000000000000000000000000000000000000000000000000000080E7F6
:2B535000000000000000000000000000000000000000000000000000000000000000000000000000000000000080E7CB
:2B537B00000000000000000000000000000000000000000000000000000000000000000000000000000000000080E7A0
:2B53A600020000000000000000000000000000000000000000000000000000000000000000000000000000000008EDE5
:2B53D100000000000000000000000000000000000000000000000000000000000000000000000000000000000080E74A
:2B53FC00000000000000000000000000000000000000000000000000000000000000000000000000000000000080E71F
:2B542700000000000000000000000000000000000000000000000000000000000000000000000000000000000080E7F3
:2B545200000000000000000000000000000000000000000000000000000000000000000000000000000000000080E7C8
:2B547D00020000000000000000000000000000000000000000000000000000000000000000000000000000000008ED0D
:2B54A800000000000000000000000000000000000000000000000000000000000000000000000000000000000080E772
:2B54D300000000000000000000000000000000000000000000000000000000000000000000000000000000000080E747
:2B54FE00000000000000000000000000000000000000000000000000000000000000000000000000000000000080E71C
:2B552900020000000000000000000000000000000000000000000000000000000000000000000000000000000008ED60
:2B555400000000000000000000000000000000000000000000000000000000000000000000000000000000000080E7C5
:2B557F00000000000000000000000000000000000000000000000000000000000000000000000000000000000080E79A
:2B55AA00000000000000000000000000000000000000000000000000000000000000000000000000000000000080E76F
:2B55D500000000000000000000000000000000000000000000000000000000000000000000000000000000000080E744
:2B560000020000000000000000000000000000000000000000000000000000000000000000000000000000000008ED88
:2B562B00000000000000000000000000000000000000000000000000000000000000000000000000000000000080E7ED
:2B565600000000000000000000000000000000000000000000000000000000000000000000000000000000000080E7C2
:2B568100000000000000000000000000000000000000000000000000000000000000000000000000000000000080E797
:2B56AC00020000000000000000000000000000000000000000000000000000000000000000000000000000000008EDDC
:2B56D700000000000000000000000000000000000000000000000000000000000000000000000000000000000080E741
:2B570200000000000000000000000000000000000000000000000000000000000000000000000000000000000080E715
:2B572D00000000000000000000000000000000000000000000000000000000000000000000000000000000000080E7EA
:2B575800000000000000000000000000000000000000000000000000000000000000000000000000000000000080E7BF
:2B578300020000000000000000000000000000000000000000000000000000000000000000000000000000000008ED04
:2B57AE00000000000000000000000000000000000000000000000000000000000000000000000000000000000080E769
:2B57D900000000000000000000000000000000000000000000000000000000000000000000000000000000000080E73E
:2B580400000000000000000000000000000000000000000000000000000000000000000000000000000000000080E712
:2B582F00020000000000000000000000000000000000000000000000000000000000000000000000000000000008ED57
:2B585A00000000000000000000000000000000000000000000000000000000000000000000000000000000000080E7BC
:2B588500000000000000000000000000000000000000000000000000000000000000000000000000000000000080E791
:2B58B000000000000000000000000000000000000000000000000000000000000000000000000000000000000080E766
:2B58DB00000000000000000000000000000000000000000000000000000000000000000000000000000000000080E73B
:2B590600020000000000000000000000000000000000000000000000000000000000000000000000000000000008ED7F
:2B593100000000000000000000000000000000000000000000000000000000000000000000000000000000000080E7E4
:2B595C00000000000000000000000000000000000000000000000000000000000000000000000000000000000080E7B9
:2B598700000000000000000000000000000000000000000000000000000000000000000000000000000000000080E78E
:2B59B200000000000000000000000000000000000000000000000000000000000000000000000000000000000080E763
:2B59DD00000000000000000000000000000000000000000000000000000000000000000000000000000000000080E738
:2B5A0800800008800008800008800008800008800008000000000020000220000220000220000220000220000280E710
:2B5A3300800008800008800008800008800008800008000000000020000220000220000220000220000220000280E7E5
:2B5A5E00000000000000000000000000000000000000000000000000000000000000000000000000000000000080E7B6
:2B5A8900000000000000000000000000000000000000000000000000000000000000000000000000000000000080E78B
:2B5AB400000000000000000000000000000000000000000000000000000000000000000000000000000000000080E760
:2B5ADF00000000000000000000000000000000000000000000000000000000000000000000000000000000000080E735
:2B5B0A00000000000000000000000000000000000000000000000000000000000000000000000000000000000080E709
:2B5B3500000000000000000000000000000000000000000000000000000000000000000000000000000000000080E7DE
:2B5B6000000000000000000000000000000000000000000000000000000000000000000000000000000000000080E7B3
:2B5B8B00000000000000000000000000000000000000000000000000000000000000000000000000000000000080E788
:2B5BB600000000000000000000000000000000000000000000000000000000000000000000000000000000000080E75D
:2B5BE100000000000000000000000000000000000000000000000000000000000000000000000000000000000080E732
:2B5C0C00000000000000000000000000000000000000000000000000000000000000000000000000000000000080E706
:2B5C3700000000000000000000000000000000000000000000000000000000000000000000000000000000000080E7DB
:2B5C6200000000000000000000000000000000000000000000000000000000000000000000000000000000000080E7B0
:2B5C8D00000000000000000000000000000000000000000000000000000000000000000000000000000000000080E785
:2B5CB800000000000000000000000000000000000000000000000000000000000000000000000000000000000080E75A
:2B5CE300000000000000000000000000000000000000000000000000000000000000000000000000000000000080E72F
:2B5D0E00000000000000000000000000000000000000000000000000000000000000000000000000000000000080E703
:2B5D3900000000000000000000000000000000000000000000000000000000000000000000000000000000000080E7D8
:2B5D6400000000000000000000000000000000000000000000000000000000000000000000000000000000000080E7AD
:2B5D8F00000000000000000000000000000000000000000000000000000000000000000000000000000000000080E782
:2B5DBA00000000000000000000000000000000000000000000000000000000000000000000000000000000000080E757
:2B5DE500000000000000000000000000000000000000000000000000000000000000000000000000000000000080E72C
:2B5E1000000000000000000000000000000000000000000000000000000000000000000000000000000000000080E700
:2B5E3B00000000000000000000000000000000000000000000000000000000000000000000000000000000000080E7D5
:2B5E6600000000000000000000000000000000000000000000000000000000000000000000000000000000000080E7AA
:2B5E9100000000000000000000000000000000000000000000000000000000000000000000000000000000000080E77F
:2B5EBC00000000000000000000000000000000000000000000000000000000000000000000000000000000000080E754
:2B5EE700000000000000000000000000000000000000000000000000000000000000000000000000000000000080E729
:2B5F1200000000000000000000000000000000000000000000000000000000000000000000000000000000000080E7FD
:2B5F3D00000000000000000000000000000000000000000000000000000000000000000000000000000000000080E7D2
:2B5F6800000000000000000000000000000000000000000000000000000000000000000000000000000000000080E7A7
:2B5F9300000000000000000000000000000000000000000000000000000000000000000000000000000000000080E77C
:2B5FBE00000000000000000000000000000000000000000000000000000000000000000000000000000000000080E751
:2B5FE900000000000000000000000000000000000000000000000000000000000000000000000000000000000080E726
:2B601400020000000000000000000000000000000000000000000000000000000000000000000000000000000008ED6A
:2B603F00000000000000000000000000000000000000000000000000000000000000000000000000000000000080E7CF
:2B606A00000000000000000000000000000000000000000000000000000000000000000000000000000000000080E7A4
:2B609500000000000000000000000000000000000000000000000000000000000000000000000000000000000080E779
:2B60C000000000000000000000000000000000000000000000000000000000000000000000000000000000000080E74E
:2B60EB00020000000000000000000000000000000000000000000000000000000000000000000000000000000008ED93
:2B611600800008800008800008800008800008800008000000000020000220000220000220000220000220000280E7FB
:2B614100800008800008800008800008800008800008000000000020000220000220000220000220000220000280E7D0
:2B616C00000000000000000000000000000000000000000000000000000000000000000000000000000000000080E7A1
:2B619700020000000000000000000000000000000000000000000000000000000000000000000000000000000008EDE6
:2B61C200000000000000000000000000000000000000000000000000000000000000000000000000000000000080E74B
:2B61ED00000000000000000000000000000000000000000000000000000000000000000000000000000000000080E720
:2B621800000000000000000000000000000000000000000000000000000000000000000000000000000000000080E7F4
:2B624300000000000000000000000000000000000000000000000000000000000000000000000000000000000080E7C9
:2B626E00020000000000000000000000000000000000000000000000000000000000000000000000000000000008ED0E
:2B629900000000000000000000000000000000000000000000000000000000000000000000000000000000000080E773
:2B62C400000000000000000000000000000000000000000000000000000000000000000000000000000000000080E748
:2B62EF00000000000000000000000000000000000000000000000000000000000000000000000000000000000080E71D
:2B631A00020000000000000000000000000000000000000000000000000000000000000000000000000000000008ED61
:2B634500000000000000000000000000000000000000000000000000000000000000000000000000000000000080E7C6
:2B637000000000000000000000000000000000000000000000000000000000000000000000000000000000000080E79B
:2B639B00000000000000000000000000000000000000000000000000000000000000000000000000000000000080E770
:2B63C600000000000000000000000000000000000000000000000000000000000000000000000000000000000080E745
:2B63F100020000000000000000000000000000000000000000000000000000000000000000000000000000000008ED8A
:2B641C00000000000000000000000000000000000000000000000000000000000000000000000000000000000080E7EE
:2B644700000000000000000000000000000000000000000000000000000000000000000000000000000000000080E7C3
:2B647200000000000000000000000000000000000000000000000000000000000000000000000000000000000080E798
:2B649D00020000000000000000000000000000000000000000000000000000000000000000000000000000000008EDDD
:2B64C800000000000000000000000000000000000000000000000000000000000000000000000000000000000080E742
:2B64F300000000000000000000000000000000000000000000000000000000000000000000000000000000000080E717
:2B651E00000000000000000000000000000000000000000000000000000000000000000000000000000000000080E7EB
:2B654900000000000000000000000000000000000000000000000000000000000000000000000000000000000080E7C0
:2B657400020000000000000000000000000000000000000000000000000000000000000000000000000000000008ED05
:2B659F00000000000000000000000000000000000000000000000000000000000000000000000000000000000080E76A
:2B65CA00000000000000000000000000000000000000000000000000000000000000000000000000000000000080E73F
:2B65F500000000000000000000000000000000000000000000000000000000000000000000000000000000000080E714
:2B662000020000000000000000000000000000000000000000000000000000000000000000000000000000000008ED58
:2B664B00000000000000000000000000000000000000000000000000000000000000000000000000000000000080E7BD
:2B667600000000000000000000000000000000000000000000000000000000000000000000000000000000000080E792
:2B66A100000000000000000000000000000000000000000000000000000000000000000000000000000000000080E767
:2B66CC00000000000000000000000000000000000000000000000000000000000000000000000000000000000080E73C
:2B66F700020000000000000000000000000000000000000000000000000000000000000000000000000000000008ED81
:2B672200000000000000000000000000000000000000000000000000000000000000000000000000000000000080E7E5
:2B674D00000000000000000000000000000000000000000000000000000000000000000000000000000000000080E7BA
:2B677800000000000000000000000000000000000000000000000000000000000000000000000000000000000080E78F
:2B67A300020000000000000000000000000000000000000000000000000000000000000000000000000000000008EDD4
:2B67CE00000000000000000000000000000000000000000000000000000000000000000000000000000000000080E739
:2B67F900000000000000000000000000000000000000000000000000000000000000000000000000000000000080E70E
:2B682400000000000000000000000000000000000000000000000000000000000000000000000000000000000080E7E2
:2B684F00000000000000000000000000000000000000000000000000000000000000000000000000000000000080E7B7
:2B687A00020000000000000000000000000000000000000000000000000000000000000000000000000000000008EDFC
:2B68A500000000000000000000000000000000000000000000000000000000000000000000000000000000000080E761
:2B68D000000000000000000000000000000000000000000000000000000000000000000000000000000000000080E736
:2B68FB00000000000000000000000000000000000000000000000000000000000000000000000000000000000080E70B
:2B692600020000000000000000000000000000000000000000000000000000000000000000000000000000000008ED4F
:2B695100000000000000000000000000000000000000000000000000000000000000000000000000000000000080E7B4
:2B697C00000000000000000000000000000000000000000000000000000000000000000000000000000000000080E789
:2B69A700000000000000000000000000000000000000000000000000000000000000000000000000000000000080E75E
:2B69D200000000000000000000000000000000000000000000000000000000000000000000000000000000000080E733
:2B69FD00020000000000000000000000000000000000000000000000000000000000000000000000000000000008ED78
:2B6A2800000000000000000000000000000000000000000000000000000000000000000000000000000000000080E7DC
:2B6A5300000000000000000000000000000000000000000000000000000000000000000000000000000000000080E7B1
:2B6A7E00000000000000000000000000000000000000000000000000000000000000000000000000000000000080E786
:2B6AA900020000000000000000000000000000000000000000000000000000000000000000000000000000000008EDCB
:2B6AD400000000000000000000000000000000000000000000000000000000000000000000000000000000000080E730
:2B6AFF00000000000000000000000000000000000000000000000000000000000000000000000000000000000080E705
:2B6B2A00000000000000000000000000000000000000000000000000000000000000000000000000000000000080E7D9
:2B6B5500000000000000000000000000000000000000000000000000000000000000000000000000000000000080E7AE
:2B6B8000020000000000000000000000000000000000000000000000000000000000000000000000000000000008EDF3
:2B6BAB00000000000000000000000000000000000000000000000000000000000000000000000000000000000080E758
:2B6BD600000000000000000000000000000000000000000000000000000000000000000000000000000000000080E72D
:2B6C0100000000000000000000000000000000000000000000000000000000000000000000000000000000000080E701
:2B6C2C00000000000000000000000000000000000000000000000000000000000000000000000000000000000080E7D6
:2B6C5700000000000000000000000000000000000000000000000000000000000000000000000000000000000080E7AB
:2B6C8200800008800008800008800008800008800008000000000020000220000220000220000220000220000280E784
:2B6CAD00800008800008800008800008800008800008000000000020000220000220000220000220000220000280E759
:2B6CD800000000000000000000000000000000000000000000000000000000000000000000000000000000000080E72A
:2B6D0300000000000000000000000000000000000000000000000000000000000000000000000000000000000080E7FE
:2B6D2E00000000000000000000000000000000000000000000000000000000000000000000000000000000000080E7D3
:2B6D5900000000000000000000000000000000000000000000000000000000000000000000000000000000000080E7A8
