:1000000019C033C032C031C030C02FC02EC02DC087
:100010002CC02BC02AC029C028C027C026C025C09C
:1000200024C023C022C021C020C01FC01EC01DC0CC
:100030001CC01BC011241FBECFEFD4E0DEBFCDBF5C
:1000400011E0A0E0B1E0EAE0F1E002C005900D921D
:10005000A030B107D9F711E0A0E0B1E001C01D92D6
:10006000A030B107E1F702D04EC0CACF1092C50050
:1000700083E38093C4008EE88093C20088E180937C
:10008000C1008091C00087FFFCCF8091C600909195
:10009000C00095FFFCCF982F91549B3110F4805EE7
:1000A00005C0982F91569B3108F480529091C00062
:1000B00095FFFCCF8093C600E4CF1092C50083E388
:1000C0008093C4008EE88093C20088E18093C100D1
:1000D0000895FC0101900020E9F73197E81BF90B26
:1000E00020E030E00CC04091C00045FFFCCFDC01B7
:1000F000A20FB31F4C914093C6002F5F3F4F2E17A6
:0A0100003F0789F70895F894FFCF38
:00000001FF
