:1000000019C033C032C031C030C02FC02EC02DC087
:100010002CC02BC02AC029C028C027C026C025C09C
:1000200024C023C022C021C020C01FC01EC01DC0CC
:100030001CC01BC011241FBECFEFD4E0DEBFCDBF5C
:1000400012E0A0E0B1E0E0E6FEE002C005900D9213
:10005000AE30B107D9F712E0AEE0B2E001C01D92B8
:10006000AE30B107E1F728D0F9C6CACF1092C5006B
:1000700083E38093C4008EE88093C20088E180937C
:10008000C1000895FC0101900020E9F73197E81BB9
:10009000F90B20E030E00CC04091C00045FFFCCFE0
:1000A000DC01A20FB31F4C914093C6002F5F3F4F5E
:1000B0002E173F0789F70895A2E3B0E0E1E6F0E0EC
:1000C00014C41092C50083E38093C4008EE880932B
:1000D000C20088E18093C100EE24FF249CE2992EA7
:1000E0008E010F5F1F4F80E0A82E81E0B82E809117
:1000F000C00085FDFCCF0BC08091C00087FFFCCF06
:10010000E090C6008091C00085FFFCCFFF242CE268
:10011000E216F10489F78091C00085FFFCCF909230
:10012000C60035D0EDB7FEB738970FB6F894FEBFCE
:100130000FBEEDBFCDB6DEB60894C11CD11C128334
:100140000183F601B382A2829C01B901882777FD61
:100150008095982FD0D120E030E04FE753E421D1B3
:1001600020E030E040E351E427D0F601648375835A
:1001700086839783EAD32DB73EB7285F3F4F0FB6EC
:10018000F8943EBF0FBE2DBFC8017CDFB0CF85EE17
:1001900080937C00809164008E7F809364008091C6
:1001A0007A00806480937A0080917A0086FDFCCF8B
:1001B0008091790090E00895A0E2B0E0E1EEF0E0F7
:1001C0008DC369837A838B839C832D833E834F8386
:1001D0005887CE010196BE01675F7F4F10D3CE01D5
:1001E0000596BE016F5E7F4F0AD39985923088F0E5
:1001F00089898230C8F0943019F4823051F404C0F7
:10020000843029F4923081F486E091E0C6C09230C7
:1002100049F480E02A859A89291381E08A87CE01F2
:100220000996BBC0823049F480E02A859A89291357
:1002300081E08A8BCE014196B0C06D847E848F842C
:100240009888AD88BE88CF88D88C60E070E080E068
:1002500090E0A0E0B0E0EE24FF24870120E030E051
:1002600040E050E0F301E170F0703097C9F02A0DE2
:100270003B1D4C1D5D1D8E0D9F1DA01FB11F222417
:10028000332421012A153B054C055D0528F4E1E0E6
:100290002E2E312C412C512C820D931DA41DB51DE9
:1002A000EE0CFF1C001F111FD7FE09C0E1E02E2E2F
:1002B000312C412C512CE228F328042915296F5F99
:1002C0007F4F6032710549F0AA0CBB1CCC1CDD1CB1
:1002D0009694879477946794C5CF6B897C89EB85D6
:1002E000FC856E0F7F1F6E5F7F4F7C8F6B8F1A8E2A
:1002F0007A856A89761711F061E06A8F6B8D7C8D43
:1003000010C0FC01E170F070309729F056954795C8
:10031000379527955068B695A795979587956F5F00
:100320007F4FB7FDEECF0CC0880F991FAA1FBB1FD0
:1003300057FD8160220F331F441F551F61507040CD
:100340008030E0E09E07E0E0AE07E0E4BE0760F347
:100350006B8F7C8F6FE7E62EF12C012D112DE8229B
:10036000F9220A231B2360E4E616F10401051105B6
:1003700061F487FD0AC0211531054105510529F0B9
:10038000805C9F4FAF4FBF4F80788D8F9E8FAF8F18
:10039000B8A383E0898FCE01499660D1A096E2E1AF
:1003A000B9C2A8E1B0E0E6EDF1E0A0C269837A83CA
:1003B0008B839C832D833E834F8358878E01075FF9
:1003C0001F4FCE010196B8011AD281E1E82EF12C1F
:1003D000EC0EFD1ECE010596B70111D29985923023
:1003E00008F484C08989823010F487017FC02A858F
:1003F0003A8923272A87943011F0923031F49817E4
:1004000009F071C006E011E071C0843039F41D8636
:100410001E861F86188A1C861B8668C0823019F4C7
:1004200084E0898763C08B859C852B893C89821BEE
:10043000930B9C878B872D853E854F855889AD888A
:10044000BE88CF88D88C2A153B054C055D0538F44D
:10045000220F331F441F551F01979C878B8760E035
:1004600070E0E12CF12C012DA0E41A2F80E090E047
:10047000A0E0B0E02A153B054C055D0540F08E2953
:100480009F29A02BB12B2A193B094C095D09169510
:100490000795F794E794220F331F441F551F6F5F92
:1004A0007F4F6F31710531F76FE7E62EF12C012D8B
:1004B000112DE822F9220A231B2360E4E616F10439
:1004C0000105110561F487FD0AC0211531054105BB
:1004D000510529F0805C9F4FAF4FBF4F80788D87CB
:1004E0009E87AF87B88B8E01075F1F4FC801B6D0BC
:1004F0006896EAE017C2A8E0B0E0E0E8F2E0F8C1F0
:100500007B018C0183E08983D801C7018827B7FD6F
:1005100083959927AA27BB278A83E114F104010553
:10052000110519F482E089833AC08823B1F080E094
:10053000E81680E0F80680E0080780E8180729F44C
:1005400060E070E080E09FEC2DC010950095F09485
:10055000E094E11CF11C011D111D8EE1C82ED12C6F
:10056000DC82CB82ED82FE820F831887C801B7013F
:100570001CD09C01215030401216130684F4022E28
:1005800004C0EE0CFF1C001F111F0A94D2F7ED826D
:10059000FE820F831887C21AD30ADC82CB82CE0177
:1005A00001965CD02896E8E0BFC1AF92BF92CF928F
:1005B000DF92EF92FF920F931F937B018C0180E0FB
:1005C000E81680E0F80681E0080780E0180788F464
:1005D0008FEFE816F1040105110531F028F088E0ED
:1005E00090E0A0E0B0E017C080E090E0A0E0B0E0D4
:1005F00012C080E0E81680E0F80680E0080781E09D
:10060000180728F088E190E0A0E0B0E004C080E1A5
:1006100090E0A0E0B0E020E230E040E050E0281BB5
:10062000390B4A0B5B0B5701680104C0D694C79481
:10063000B794A7948A95D2F7F501E25FFE4F8081C7
:10064000281B310941095109C9011F910F91FF90E0
:10065000EF90DF90CF90BF90AF900895CF92DF9250
:10066000EF92FF920F931F93FC0124813581468105
:10067000578101818081823020F440618FEF90E0CA
:10068000A4C0843009F49BC0823019F480E090E06B
:1006900098C0211531054105510519F480E090E01D
:1006A00094C0828193816FEF823896070CF059C015
:1006B00062E87FEF681B790B6A3171052CF020E04E
:1006C00030E040E050E02AC069017A01062E04C003
:1006D000F694E794D794C7940A94D2F781E090E017
:1006E000A0E0B0E004C0880F991FAA1FBB1F6A9545
:1006F000D2F70197A109B10982239323A423B5233B
:100700000097A105B10521F081E090E0A0E0B0E004
:100710009C01AD012C293D294E295F29DA01C9012F
:100720008F779070A070B07080349105A105B105ED
:1007300039F427FF09C0205C3F4F4F4F5F4F04C083
:10074000215C3F4F4F4F5F4F80E090E0203060E0F2
:10075000360760E0460760E4560748F181E090E024
:1007600026C0803891055CF581589F4F7FE7C72EE2
:10077000D12CE12CF12CC222D322E422F52260E418
:10078000C616D104E104F10439F427FF09C0205C46
:100790003F4F4F4F5F4F04C0215C3F4F4F4F5F4F64
:1007A00057FF05C05695479537952795019697E0D1
:1007B00056954795379527959A95D1F706C08FEFAF
:1007C00090E020E030E040E050E0782F7795772708
:1007D0007795142F1F77602F679566276795869505
:1007E000F12FF72BE82FE62B622F732F8F2F9E2FE1
:1007F0001F910F91FF90EF90DF90CF900895FC0133
:10080000DB01208131818281482F4F7750E0982F82
:10081000991F9927991F6381862F880F892B90E054
:10082000661F6627661F11966C931197009769F5EE
:10083000211531054105510511F482E02FC082E8F0
:100840009FEF13969C938E93129767E0220F331FAE
:10085000441F551F6A95D1F783E08C930DC0220F7A
:10086000331F441F551F12968D919C91139701972A
:1008700013969C938E931297203080E0380780E087
:10088000480780E4580758F322C08F3F910579F458
:10089000211531054105510519F484E08C93089523
:1008A00044FF03C081E08C9312C01C9210C08F578C
:1008B000904013969C938E93129783E08C9387E0DD
:1008C000220F331F441F551F8A95D1F75064149689
:1008D0002D933D934D935C93179708952F923F92DC
:1008E0004F925F926F927F928F929F92AF92BF9240
:1008F000CF92DF92EF92FF920F931F93CF93DF93EC
:10090000CDB7DEB7CA1BDB0B0FB6F894DEBF0FBE48
:10091000CDBF09942A88398848885F846E847D8495
:100920008C849B84AA84B984C884DF80EE80FD8097
:100930000C811B81AA81B981CE0FD11D0FB6F8940D
:10094000DEBF0FBECDBFED010895AEE0B0E0EAEA34
:10095000F4E0D2CF0D891E8986E08C831A83098347
:100960008FEF9FE79E838D839E01275E3F4FCE01D1
:1009700001966F89788DA90108D0EF81F885E00F85
:10098000F11F10822E96E4E0D3CFACE0B0E0EAECA9
:10099000F4E0A5CF6C012B018A01FC0117821682BD
:1009A000838181FD03C02FEF3FEFB4C14E01089456
:1009B000811C911C6FE3362EF6019381F20193FDA9
:1009C000859193FF81912F01882309F4A0C185327D
:1009D00039F493FD859193FF81912F01853221F4A4
:1009E00090E0B601B1D1E8CFEE24FF2420E0203220
:1009F000B0F48B3269F08C3228F4803251F08332BB
:100A000071F40BC08D3239F0803349F421602CC071
:100A10002260246029C0286027C0206125C027FDEE
:100A20002CC0382F30533A3098F426FF08C08E2D52
:100A3000880FE82EEE0CEE0CE80EE30E15C08F2D9D
:100A4000880FF82EFF0CFF0CF80EF30E20620CC07E
:100A50008E3221F426FD5BC1206406C08C3611F471
:100A6000206802C0883649F4F20193FD859193FF16
:100A700081912F01882309F0BACF982F9554933094
:100A800018F09052933020F40C5F1F4F39820DC044
:100A9000833631F0833771F0833509F054C01DC0BF
:100AA000F801808189830E5F1F4F540151E0652E4C
:100AB000712C11C0F801A080B18026FD03C06FEF3A
:100AC0007FEF02C06E2D70E00E5F1F4FC5012C87B7
:100AD00030D13C012C852F7712C0F801A080B18065
:100AE00026FD03C06FEF7FEF02C06E2D70E00E5F3A
:100AF0001F4FC5012C8712D13C012C85206823FF94
:100B000008C01DC080E290E0B6012C871DD1FA9488
:100B10002C858F2D90E068167906A0F310C0F501A2
:100B200027FD859127FF81915F0190E0B6012C8719
:100B30000BD12C85F110FA940894610871086114A6
:100B4000710469F7E1C0843611F0893641F527FF59
:100B500008C0F80160817181828193810C5F1F4F11
:100B600009C0F80160817181882777FD8095982FF1
:100B70000E5F1F4F4FE6B42EB22297FF09C090952B
:100B80008095709561957F4F8F4F9F4FF0E8BF2AFA
:100B9000A4012AE030E004D1782E781842C08537CD
:100BA00031F43FEEB32EB2222AE030E023C099EFB9
:100BB000B92EB2228F3661F0803720F4883509F0E3
:100BC000A6C012C0803739F0883709F0A0C005C030
:100BD00028E030E00FC020E1B22AB4FE02C084E079
:100BE000B82A20E130E006C0B4FE02C0E6E0BE2A2A
:100BF00020E132E0B7FE08C0F80160817181828196
:100C000093810C5F1F4F07C0F8016081718180E004
:100C100090E00E5F1F4FA401C3D0782E7818FFE735
:100C2000BF22B6FE0BC02EEFB2227E1438F4B4FE03
:100C300007C0B2FC05C08FEEB82202C0A72C01C0CD
:100C4000AE2C8B2DB4FE0DC0FE01E70DF11D908181
:100C5000903319F4E9EEBE2207C0A394B2FE04C09B
:100C600002C0867809F0A3946B2CB3FC13C0B0FECD
:100C70000EC0AF1410F0E72C0AC0E72CEF0CEA18F6
:100C8000AF2C05C080E290E0B6015ED0A394AF1413
:100C9000C8F304C0AF1410F4FA1801C0FF2464FEB6
:100CA0000EC080E390E0B6014FD062FE1BC061FC35
:100CB00003C088E790E00EC088E590E00BC0862D69
:100CC000867881F061FE02C08BE201C080E2B7FC51
:100CD0008DE290E0B60138D005C080E390E0B60127
:100CE00033D0EA947E14C8F37A94F401E70DF11D31
:100CF000808190E0B60128D07720B1F705C080E26E
:100D000090E0B60121D0FA94FF20C9F755CEF60144
:100D100026813781C9012C96E1E1FDCDFC010590CA
:100D2000615070400110D8F7809590958E0F9F1FED
:100D30000895FC016150704001900110D8F7809532
:100D400090958E0F9F1F08950F931F93CF93DF935E
:100D50008C01EB018B8181FF1BC082FF0DC02E81B6
:100D60003F818C819D812817390764F4E881F981DE
:100D70000193F983E88306C0E885F985802F0995FA
:100D8000009731F48E819F8101969F838E8302C0EC
:100D90000FEF1FEFC801DF91CF911F910F910895C1
:100DA000FA01AA27283051F1203181F1E8946F939C
:100DB0006E7F6E5F7F4F8F4F9F4FAF4FB1E03ED042
:100DC000B4E03CD0670F781F891F9A1FA11D680FE0
:100DD000791F8A1F911DA11D6A0F711D811D911D13
:100DE000A11D20D009F468943F912AE0269F112488
:100DF0003019305D3193DEF6CF010895462F4770EC
:100E0000405D4193B3E00FD0C9F7F6CF462F4F7046
:100E1000405D4A3318F0495D31FD4052419302D0A4
:100E2000A9F7EACFB4E0A69597958795779567954A
:100E3000BA95C9F700976105710508959B01AC014A
:100E40000A2E06945795479537952795BA95C9F771
:100E5000620F731F841F951FA01D0895F894FFCF84
:100E6000256C660D0A000000000000000000000173
:100E70000202030303030404040404040404050538
:100E80000505050505050505050505050505060610
:100E900006060606060606060606060606060606F2
:100EA00006060606060606060606060606060707E0
:100EB00007070707070707070707070707070707C2
:100EC00007070707070707070707070707070707B2
:100ED00007070707070707070707070707070707A2
:100EE0000707070707070707070707070707080890
:100EF0000808080808080808080808080808080872
:100F00000808080808080808080808080808080861
:100F10000808080808080808080808080808080851
:100F20000808080808080808080808080808080841
:100F30000808080808080808080808080808080831
:100F40000808080808080808080808080808080821
:100F50000808080808080808080808080808080811
:0E0F6000080808080808080808080808080813
:00000001FF
