:1000000019C033C032C031C030C02FC02EC02DC087
:100010002CC02BC02AC029C028C027C026C025C09C
:1000200024C023C022C021C020C01FC01EC01DC0CC
:100030001CC01BC011241FBECFEFD4E0DEBFCDBF5C
:1000400011E0A0E0B1E0E0EDF2E002C005900D9219
:10005000A030B107D9F711E0A0E0B1E001C01D92D6
:10006000A030B107E1F728D031C1CACF1092C50046
:1000700083E38093C4008EE88093C20088E180937C
:10008000C1000895FC0101900020E9F73197E81BB9
:10009000F90B20E030E00CC04091C00045FFFCCFE0
:1000A000DC01A20FB31F4C914093C6002F5F3F4F5E
:1000B0002E173F0789F70895A0E1B0E0E1E6F0E0F0
:1000C000DCC01092C50083E38093C4008EE8809367
:1000D000C20088E18093C10080E090E08E010F5F54
:1000E0001F4F2091C00027FFFCCF2091C600309108
:1000F000C00035FFFCCF2C3259F4800F911FFC015A
:100100001082C801BFDFC8014CD080E090E0E9CF89
:10011000F801E80FF91F20830196E3CF2D98089589
:100120002D9A08951F938FEF8AB984E190E06ED0E5
:100130002D9885B18F7385B918E31BB92D9A2D9829
:1001400085E090E063D085B18F7385B91BB92D9A96
:100150002D9881E090E05AD02D9A2D9881E090E082
:1001600055D085B18F7385B981E08BB92D9A2D98C3
:1001700084E190E04BD085B18F7385B986E08BB96F
:100180002D9A2D9881E090E041D085B18F7385B98B
:100190008EE08BB92D9A2D988AE090E037D01F9190
:1001A0000895EF92FF920F931F93CF93DF938C01EB
:1001B000C0E0D0E0EE24E39484E1F82E17C085B1CE
:1001C0008F7385B9EBB881E090E020D02E982F9AFC
:1001D000F801EC0FFD1F80818BB9A2DF9FDF85B195
:1001E0008F7385B9FBB89CDF99DF2196F8010190E8
:1001F0000020E9F73197E01BF10BCE17DF07F8F28B
:1002000080E090E0CDB7DEB7E6E051C008959C01F4
:1002100080E680937C00283031051CF02FEF3FEF03
:100220001CC090917C00922B90937C008091640084
:100230008E7F8093640080917A00806480937A003E
:1002400080917A0086FDFCCF209178003091790072
:10025000932F80E030E0282B392BC90108952F928D
:100260003F924F925F926F927F928F929F92AF9246
:10027000BF92CF92DF92EF92FF920F931F93CF9393
:10028000DF93CDB7DEB7CA1BDB0B0FB6F894DEBF2A
:100290000FBECDBF09942A88398848885F846E8450
:1002A0007D848C849B84AA84B984C884DF80EE809A
:1002B000FD800C811B81AA81B981CE0FD11D0FB6A3
:1002C000F894DEBF0FBECDBFED010895F894FFCFC7
:00000001FF
