:1000000019C033C032C031C030C02FC02EC02DC087
:100010002CC02BC02AC029C028C027C026C025C09C
:1000200024C023C022C021C020C01FC01EC01DC0CC
:100030001CC01BC011241FBECFEFD4E0DEBFCDBF5C
:1000400011E0A0E0B1E0EEE6F3E002C005900D9211
:10005000A030B107D9F711E0A0E0B1E001C01D92D6
:10006000A030B107E1F732D080C1CACF1092C500ED
:1000700083E38093C4008EE88093C20088E180937C
:10008000C1000895FC0101900020E9F73197E81BB9
:10009000F90B20E030E069E170E014C04091C0004D
:1000A00045FFFCCF40E157E2DB011197F1F74150EA
:1000B0005040D1F7DC01A20FB31F4C914093C60012
:1000C0002F5F3F4F2E173F0749F70895A0E1B0E09B
:1000D000EBE6F0E021C11092C50083E38093C400F9
:1000E0008EE88093C20088E18093C10032D080E026
:1000F00090E08E010F5F1F4F2091C00027FFFCCFC3
:100100002091C6003091C00035FFFCCF2C3259F44D
:10011000800F911FFC011082C801B4DFC8019DD07F
:1001200080E090E0E9CFF801E80FF91F2083019605
:10013000E3CF2D9808952D9A08952D9A80E29EE49C
:1001400029E130E0F9013197F1F70197D9F72D98BE
:1001500008958FEF8AB984B1806E84B980E29EE4FD
:1001600029E130E0F9013197F1F70197D9F785B12D
:100170008F7185B988E38BB9E0DF88E99AE329E1DB
:1001800030E0F9013197F1F70197D9F785B18F7315
:1001900085B988E38BB9D1DF88E99AE329E130E0BA
:1001A000F9013197F1F70197D9F7C7DF80E29EE4B3
:1001B00029E130E0F9013197F1F70197D9F7BDDF77
:1001C00088E99AE329E130E0F9013197F1F70197E5
:1001D000D9F785B18F7385B981E08BB9AEDF88EA35
:1001E00091E629E130E0F9013197F1F70197D9F76C
:1001F00085B18F7385B986E08BB99FDF88E99AE373
:1002000029E130E0F9013197F1F70197D9F785B18C
:100210008F7385B98CE08BB990DF88EA91E629E18C
:1002200030E0F9013197F1F70197D9F785B18F7374
:1002300085B981E08BB981DF85B18F7085B92F9A3F
:1002400081E68BB97ADF80E197E229E130E0F901BC
:100250003197F1F70197D9F70895FF920F931F9304
:10026000CF93DF938C01C0E0D0E08BEEF82E0EC070
:100270002E982F9AF801EC0FFD1F80818BB95DDF5E
:1002800085B18F7185B9FBB858DF2196F8010190CF
:100290000020E9F73197E01BF10BCE17DF0740F3A1
:1002A00080E090E0CDB7DEB7E5E051C09C0180E68C
:1002B00080937C00283031051CF02FEF3FEF1CC0ED
:1002C00090917C00922B90937C00809164008E7FB3
:1002D0008093640080917A00806480937A0080919A
:1002E0007A0086FDFCCF2091780030917900932F21
:1002F00080E030E0282B392BC90108952F923F92DE
:100300004F925F926F927F928F929F92AF92BF9225
:10031000CF92DF92EF92FF920F931F93CF93DF93D1
:10032000CDB7DEB7CA1BDB0B0FB6F894DEBF0FBE2E
:10033000CDBF09942A88398848885F846E847D847B
:100340008C849B84AA84B984C884DF80EE80FD807D
:100350000C811B81AA81B981CE0FD11D0FB6F894F3
:0E036000DEBF0FBECDBFED010895F894FFCFB4
:00000001FF
