:1000000019C033C032C031C030C02FC02EC02DC087
:100010002CC02BC02AC029C028C027C026C025C09C
:1000200024C023C022C021C020C01FC01EC01DC0CC
:100030001CC01BC011241FBECFEFD4E0DEBFCDBF5C
:1000400011E0A0E0B1E0EAE7F2E002C005900D9215
:10005000AC30B107D9F711E0ACE0B1E001C01D92BE
:10006000AC30B107E1F702D006C1CACFA0E1B0E0E1
:10007000EBE3F0E0D7C08E010F5F1F4F80E1F80186
:1000800011928A95E9F780E091E0898380EE84B946
:1000900034D084E190E08FD0C8015FD080E090E060
:1000A0006096E4E0DBC01092C50083E38093C40057
:1000B0008EE88093C20088E18093C1000895FC011E
:1000C00001900020E9F73197E81BF90B20E030E0C0
:1000D0000CC04091C00045FFFCCFDC01A20FB31F54
:1000E0004C914093C6002F5F3F4F2E173F0789F773
:1000F00008952D9808952D9A08958FEF8AB984E177
:1001000090E059D02D9885B18F7385B988E38BB96C
:100110002D9A2D988AE090E04ED02D9A2D9881E06E
:1001200090E049D02D9A2D9881E090E044D081E074
:100130008BB92D9A2D9884E190E03DD086E08BB963
:100140002D9A2D9881E090E036D08CE08BB92D9AD5
:100150002D988AE090E02FD00895FF920F931F937F
:10016000CF93DF938C01C0E0D0E084E1F82E13C080
:1001700081E090E020D02E982F9AF801EC0FFD1F1F
:1001800080818BB9B8DFB5DF85B18F7385B9FBB8D6
:10019000B2DFAFDF2196F80101900020E9F7319737
:1001A000E01BF10BCE17DF0718F380E090E0CDB72E
:1001B000DEB7E5E052C008959C0180E680937C00A4
:1001C000283031051CF02FEF3FEF1CC090917C00D0
:1001D000922B90937C00809164008E7F80936400CA
:1001E00080917A00806480937A0080917A0086FD05
:1001F000FCCF2091780030917900932F80E030E09F
:10020000282B392BC90108952F923F924F925F926C
:100210006F927F928F929F92AF92BF92CF92DF9216
:10022000EF92FF920F931F93CF93DF93CDB7DEB77B
:10023000CA1BDB0B0FB6F894DEBF0FBECDBF09940F
:100240002A88398848885F846E847D848C849B8466
:10025000AA84B984C884DF80EE80FD800C811B8174
:10026000AA81B981CE0FD11D0FB6F894DEBF0FBEA3
:0A027000CDBFED010895F894FFCF13
:0C027A005445535420535452494E470041
:00000001FF
