:1000000019C033C032C031C030C02FC02EC02DC087
:100010002CC02BC02AC029C028C027C026C025C09C
:1000200024C023C022C021C020C01FC01EC01DC0CC
:100030001CC01BC011241FBECFEFD4E0DEBFCDBF5C
:1000400011E0A0E0B1E0E2E2F8E002C005900D921C
:10005000A630B107D9F711E0A6E0B1E001C01D92CA
:10006000A630B107E1F728D0DAC3CACF1092C50095
:1000700083E38093C4008EE88093C20088E180937C
:10008000C1000895FC0101900020E9F73197E81BB9
:10009000F90B20E030E00CC04091C00045FFFCCFE0
:1000A000DC01A20FB31F4C914093C6002F5F3F4F5E
:1000B0002E173F0789F70895A1E1B0E0E1E6F0E0EF
:1000C000F5C081EF84B98EE085B961D01092C5008A
:1000D00083E38093C4008EE88093C20088E180931C
:1000E000C10020E09CE2992E8E010F5F1F4F80E03F
:1000F000A82E81E0B82E0F2EF0E0CF2EF0E0DF2EFC
:10010000F8E4EF2EF2E4FF2EF02D8091C00085FD83
:10011000FCCF0AC08091C00087FFFCCF2091C600B1
:100120008091C00085FFFCCF2C32A1F78091C000E8
:1001300085FFFCCF9092C6008DB79EB708970FB68B
:10014000F8949EBF0FBE8DBFEDB7FEB73196ADB729
:10015000BEB712961C930E931197B382A282C482EB
:10016000D582E682F782298BD1D08DB79EB70896CB
:100170000FB6F8949EBF0FBE8DBFC80183DFC801C4
:1001800036D02989C2CF2D9808952D9A08958FEFE2
:100190008AB984E190E05AD02D9885B18F7385B9E2
:1001A00088E38BB92D9A2D988AE090E04FD02D9A54
:1001B0002D9881E090E04AD02D9A2D9881E090E032
:1001C00045D081E08BB92D9A2D9884E190E03ED006
:1001D00086E08BB92D9A2D9881E090E037D08CE0A5
:1001E0008BB92D9A2D988AE090E030D00895EF9247
:1001F000FF920F931F93CF93DF938C01C0E0D0E069
:100200000AC081E090E022D02E98F70180818BB95E
:10021000BCDFB9DF2196F80101900020E9F73197A2
:10022000E01BF10B7801EC0EFD1ECE17DF0748F343
:10023000F7018081882319F420E030E002C02FEF1D
:100240003FEFC901CDB7DEB7E6E051C008959C018C
:1002500080E680937C00283031051CF02FEF3FEFC3
:100260001CC090917C00922B90937C008091640044
:100270008E7F8093640080917A00806480937A00FE
:1002800080917A0086FDFCCF209178003091790032
:10029000932F80E030E0282B392BC90108952F924D
:1002A0003F924F925F926F927F928F929F92AF9206
:1002B000BF92CF92DF92EF92FF920F931F93CF9353
:1002C000DF93CDB7DEB7CA1BDB0B0FB6F894DEBFEA
:1002D0000FBECDBF09942A88398848885F846E8410
:1002E0007D848C849B84AA84B984C884DF80EE805A
:1002F000FD800C811B81AA81B981CE0FD11D0FB663
:10030000F894DEBF0FBECDBFED010895AEE0B0E0C2
:10031000EBE8F1E0D2CF0D891E8986E08C831A8349
:1003200009838FEF9FE79E838D839E01275E3F4F5A
:10033000CE0101966F89788DA90108D0EF81F885EB
:10034000E00FF11F10822E96E4E0D3CFACE0B0E0D6
:10035000EBEAF1E0A5CF6C012B018A01FC011782C9
:100360001682838181FD03C02FEF3FEFB4C14E01A0
:100370000894811C911C6FE3362EF6019381F201E3
:1003800093FD859193FF81912F01882309F4A0C1EA
:10039000853239F493FD859193FF81912F01853248
:1003A00021F490E0B601B1D1E8CFEE24FF2420E0A3
:1003B0002032B0F48B3269F08C3228F4803251F064
:1003C000833271F40BC08D3239F0803349F42160EF
:1003D0002CC02260246029C0286027C0206125C06D
:1003E00027FD2CC0382F30533A3098F426FF08C030
:1003F0008E2D880FE82EEE0CEE0CE80EE30E15C0E5
:100400008F2D880FF82EFF0CFF0CF80EF30E2062D4
:100410000CC08E3221F426FD5BC1206406C08C36F0
:1004200011F4206802C0883649F4F20193FD8591E9
:1004300093FF81912F01882309F0BACF982F95540B
:10044000933018F09052933020F40C5F1F4F398294
:100450000DC0833631F0833771F0833509F054C015
:100460001DC0F801808189830E5F1F4F540151E048
:10047000652E712C11C0F801A080B18026FD03C04B
:100480006FEF7FEF02C06E2D70E00E5F1F4FC50152
:100490002C8730D13C012C852F7712C0F801A08029
:1004A000B18026FD03C06FEF7FEF02C06E2D70E0BC
:1004B0000E5F1F4FC5012C8712D13C012C8520688F
:1004C00023FF08C01DC080E290E0B6012C871DD13B
:1004D000FA942C858F2D90E068167906A0F310C051
:1004E000F50127FD859127FF81915F0190E0B6011D
:1004F0002C870BD12C85F110FA94089461087108AF
:100500006114710469F7E1C0843611F0893641F550
:1005100027FF08C0F80160817181828193810C5F9F
:100520001F4F09C0F80160817181882777FD809590
:10053000982F0E5F1F4F4FE6B42EB22297FF09C0CF
:1005400090958095709561957F4F8F4F9F4FF0E804
:10055000BF2AA4012AE030E004D1782E781842C0E6
:10056000853731F43FEEB32EB2222AE030E023C0CB
:1005700099EFB92EB2228F3661F0803720F488359A
:1005800009F0A6C012C0803739F0883709F0A0C042
:1005900005C028E030E00FC020E1B22AB4FE02C05E
:1005A00084E0B82A20E130E006C0B4FE02C0E6E0F4
:1005B000BE2A20E132E0B7FE08C0F80160817181F7
:1005C000828193810C5F1F4F07C0F80160817181A8
:1005D00080E090E00E5F1F4FA401C3D0782E781802
:1005E000FFE7BF22B6FE0BC02EEFB2227E1438F416
:1005F000B4FE07C0B2FC05C08FEEB82202C0A72C23
:1006000001C0AE2C8B2DB4FE0DC0FE01E70DF11D17
:100610009081903319F4E9EEBE2207C0A394B2FE94
:1006200004C002C0867809F0A3946B2CB3FC13C0FD
:10063000B0FE0EC0AF1410F0E72C0AC0E72CEF0C90
:10064000EA18AF2C05C080E290E0B6015ED0A3941A
:10065000AF14C8F304C0AF1410F4FA1801C0FF249B
:1006600064FE0EC080E390E0B6014FD062FE1BC076
:1006700061FC03C088E790E00EC088E590E00BC005
:10068000862D867881F061FE02C08BE201C080E297
:10069000B7FC8DE290E0B60138D005C080E390E071
:1006A000B60133D0EA947E14C8F37A94F401E70DCE
:1006B000F11D808190E0B60128D07720B1F705C008
:1006C00080E290E0B60121D0FA94FF20C9F755CE20
:1006D000F60126813781C9012C96E1E1FDCDFC01AF
:1006E0000590615070400110D8F7809590958E0F5D
:1006F0009F1F0895FC016150704001900110D8F7D0
:10070000809590958E0F9F1F08950F931F93CF9301
:10071000DF938C01EB018B8181FF1BC082FF0DC039
:100720002E813F818C819D812817390764F4E881EF
:10073000F9810193F983E88306C0E885F985802F64
:100740000995009731F48E819F8101969F838E8356
:1007500002C00FEF1FEFC801DF91CF911F910F91E2
:100760000895FA01AA27283051F1203181F1E89447
:100770006F936E7F6E5F7F4F8F4F9F4FAF4FB1E094
:100780003ED0B4E03CD0670F781F891F9A1FA11D8F
:10079000680F791F8A1F911DA11D6A0F711D811D90
:1007A000911DA11D20D009F468943F912AE0269F55
:1007B00011243019305D3193DEF6CF010895462FB4
:1007C0004770405D4193B3E00FD0C9F7F6CF462F95
:1007D0004F70405D4A3318F0495D31FD40524193FE
:1007E00002D0A9F7EACFB4E0A695979587957795BB
:1007F0006795BA95C9F700976105710508959B0142
:10080000AC010A2E06945795479537952795BA95CA
:10081000C9F7620F731F841F951FA01D0895F894D8
:02082000FFCF08
:0608220025660D0A00002E
:00000001FF
